:100000000C9468000C94D4090C94AD090C949000E5
:100010000C9490000C9490000C9490000C94900020
:100020000C9490000C9490000C9490000C94FB099C
:100030000C9490000C9490000C9490000C94900000
:100040000C9463090C9490000C9431090C940B09E6
:100050000C9490000C9490000C9490000C949000E0
:100060000C9490000C9490000000000023002600E7
:10007000290072740492740448940478C40C00003B
:100080000000240027002A000000000025002800AE
:100090002B00040404040404040402020202020209
:1000A000030303030303010204081020408001023C
:1000B00004081020010204081020000000080002BB
:1000C00001000003040700000000000000003D0BD9
:1000D00011241FBECFEFD8E0DEBFCDBF12E0A0E0FD
:1000E000B1E0E8E9FEE102C005900D92A237B10748
:1000F000D9F724E0A2E7B2E001C01D92AE34B20706
:10010000E1F710E0C8E6D0E004C02197FE010E94AC
:10011000360FC736D107C9F70E94A30B0C944A0FBC
:100120000C940000E82FF0E0EE0FFF1FE050FF4FAF
:1001300071836083813039F080916900836080939E
:100140006900E89A0895809169008C608093690045
:10015000E99A0895AF92BF92CF92DF92EF92FF9209
:100160000F931F93CF93DF936C017B018B01040FDF
:10017000151FEB015E01AE18BF08C017D10759F07B
:100180006991D601ED91FC910190F081E02DC601BD
:100190000995892B79F7C501DF91CF911F910F91B7
:1001A000FF90EF90DF90CF90BF90AF900895FC014B
:1001B000538D448D252F30E0842F90E0821B930BCC
:1001C000541710F0CF96089501970895FC01918D72
:1001D000828D981761F0A28DAE0FBF2FB11D5D9675
:1001E0008C91928D9F5F9F73928F90E008958FEF17
:1001F0009FEF0895FC01918D828D981731F0828DCB
:10020000E80FF11D858D90E008958FEF9FEF089521
:10021000FC01918D228D892F90E0805C9F4F821B85
:1002200091098F739927089586E892E00E9408014A
:1002300021E0892B09F420E0822F089580E090E0EE
:10024000892B29F00E94140181110C94000008955B
:10025000FC01A48DA80FB92FB11DA35ABF4F2C913B
:10026000848D90E001968F739927848FA689B78932
:100270002C93A089B1898C91837080648C93938D29
:10028000848D981306C00288F389E02D80818F7DCC
:1002900080830895EF92FF920F931F93CF93DF9384
:1002A000EC0181E0888F9B8D8C8D98131AC0E889B2
:1002B000F989808185FF15C09FB7F894EE89FF8981
:1002C0006083E889F98980818370806480839FBF1F
:1002D00081E090E0DF91CF911F910F91FF90EF901F
:1002E0000895F62E0B8D10E00F5F1F4F0F7311272F
:1002F000E02E8C8D8E110CC00FB607FCFACFE8896A
:10030000F989808185FFF5CFCE010E942801F1CFC8
:10031000EB8DEC0FFD2FF11DE35AFF4FF0829FB7DD
:10032000F8940B8FEA89FB8980818062CFCFCF93CD
:10033000DF93EC01888D8823B9F0AA89BB89E8890D
:10034000F9898C9185FD03C0808186FD0DC00FB6B3
:1003500007FCF7CF8C9185FFF2CF808185FFEDCF31
:10036000CE010E942801E9CFDF91CF91089583301B
:1003700081F028F4813099F08230A9F00895873017
:10038000A9F08830C9F08430B1F4809180008F7D6D
:1003900003C0809180008F7780938000089584B59A
:1003A0008F7784BD089584B58F7DFBCF8091B00099
:1003B0008F778093B00008958091B0008F7DF9CF42
:1003C0001F93CF93DF93282F30E0F901E654FF4FBE
:1003D0008491F901EA55FF4FD491F901EE56FF4F90
:1003E000C491CC23A9F0162F81110E94B701EC2FE4
:1003F000F0E0EE0FFF1FE857FF4FA591B4918FB7C4
:10040000F894EC91111108C0D095DE23DC938FBFD6
:10041000DF91CF911F910895DE2BF8CFCF93DF931B
:1004200090E0FC01EA55FF4F24918E569F4FFC014E
:1004300084918823D1F090E0880F991FFC01E25845
:10044000FF4FA591B491FC01E857FF4FC591D4919E
:1004500061110EC09FB7F8948C91E22FE0958E2326
:100460008C932881E223E8839FBFDF91CF91089589
:100470008FB7F894EC91E22BEC938FBFF6CF3FB798
:10048000F8948091820290918302A0918402B091AD
:10049000850226B5A89B05C02F3F19F00196A11D26
:1004A000B11D3FBFBA2FA92F982F8827BC01CD01BE
:1004B000620F711D811D911D42E0660F771F881F1D
:1004C000991F4A95D1F708958F929F92AF92BF924C
:1004D000CF92DF92EF92FF926B017C010E943F026C
:1004E0004B015C01C114D104E104F104B9F00E9494
:1004F0003F02681979098A099B09683E73408105A2
:10050000910580F321E0C21AD108E108F10888EED4
:10051000880E83E0981EA11CB11CE4CFFF90EF90E1
:10052000DF90CF90BF90AF909F908F9008952FB79E
:10053000F89460917E0270917F0280918002909188
:1005400081022FBF089508958BEF0895CF93DF9315
:10055000FC01228133812230310569F0EC01678D85
:10056000858D0E94E00160E08C8D0E94E00182E0B8
:1005700090E09B838A83DF91CF910895FF920F9340
:100580001F93CF93DF93EC01162FF42E0FB7F8943F
:10059000898D9A8DDC01ED91FC910088F189E02D27
:1005A000099560E08B8D0E94E001898D9A8D612F05
:1005B0006068DC01ED91FC910190F081E02D0995DE
:1005C000182F898D9A8DDC01ED91FC910190F081BD
:1005D000E02D6F2D099561E08B8D0E94E001898DE2
:1005E0009A8DDC01ED91FC910288F389E02D09954B
:1005F0000FBF812FDF91CF911F910F91FF90089531
:10060000CF93DF93EC0143E061E00E94BE0240E43F
:1006100060E4CE010E94BE0283E090E09B838A8367
:10062000DF91CF910895CF93DF93EC0145E061E036
:100630000E94BE0240E060E4CE010E94BE0284E05F
:1006400090E09B838A83DF91CF910895CF93DF93CE
:10065000FC01228133812330310571F0EC0182816C
:100660009381049719F0CF010E941303C25EDE4FFD
:100670008881DF91CF91089580E0FBCFCF93DF9306
:10068000EC018A819B81059771F047E061E0CE0122
:100690000E94BE0240E860E4CE010E94BE0285E0F6
:1006A00090E09B838A838A819B810597E1F38E8901
:1006B000DF91CF910895CF93DF93FC0122813381A5
:1006C0002130310549F0EC0140E061E00E94BE02BA
:1006D00081E090E09B838A8381E0DF91CF91089550
:1006E000CF93DF93FC01228133812230310549F021
:1006F000EC0141E061E00E94BE0282E090E09B8359
:100700008A83DF91CF910895BF92CF92DF92EF92CB
:10071000FF920F931F93CF93DF934C3F60F0E12C38
:100720008E2DDF91CF911F910F91FF90EF90DF9071
:10073000CF90BF900895142F072FF62EEC01E8817B
:10074000F9810484F585E02D0995CE010E9470039E
:10075000E881F9810288F389E02DCE010995E82E20
:100760008823E9F240E06DE0CE010E94BE024A8596
:1007700060E0CE010E94BE024B8560E0CE010E9487
:10078000BE024C8560E0CE010E94BE024D8560E055
:10079000CE010E94BE02BFB6F894898D9A8DDC010D
:1007A000ED91FC910088F189E02D099560E08B8D39
:1007B0000E94E001898D9A8DDC01ED91FC91019000
:1007C000F081E02D60E80995CF2CD02E012F01504B
:1007D00068F0898D9A8DF60161916F01DC01ED91D0
:1007E000FC910190F081E02D0995F1CF61E08B8DB6
:1007F0000E94E001898D9A8DDC01ED91FC910288C7
:10080000F389E02D0995BFBE44E0410F62E2CE01BD
:100810000E94BE028A819B81039709F481CFCE0199
:100820000E9400037DCF0F931F93CF93DF93EC01C2
:10083000162F0FB7F89460E08B8D0E94E001898D30
:100840009A8DDC01ED91FC910190F081E02D612FFA
:100850000995898D9A8DDC01ED91FC910190F081D3
:10086000E02D60E00995182F61E08B8D0E94E0017A
:100870000FBF812FDF91CF911F910F910895CF92DC
:10088000DF92EF92FF921F93CF93DF93EC0162E12F
:100890000E941304182F6CE1CE010E9413042A81D8
:1008A0003B812430310529F58295869586958370A4
:1008B00091E0892780FBEE24E0F8F12C812F807AEB
:1008C000E82AEF28B1F0888999890196998B888B5D
:1008D0004FEF62E1CE010E94BE024FEF62E1CE0116
:1008E000DF91CF911F91FF90EF90DF90CF900C940C
:1008F000BE028A819B81049711F416FD0FC08A8184
:100900009B81039711F413FDBFC08A819B810597DA
:10091000F9F612FFDDCF11701E8BA1C063E1CE018D
:100920000E941304F82E60E1CE010E941304482FA8
:100930006DE0CE010E94BE02EFB6F894898D9A8DCB
:10094000DC01ED91FC910088F189E02D099560E0D2
:100950008B8D0E94E001898D9A8DDC01ED91FC91D7
:100960000190F081E02D60E009956E01BFE1CB0EB2
:10097000D11C1F2D115070F0898D9A8DDC01ED91E5
:10098000FC910190F081E02D60E00995F6018193E2
:100990006F01F0CF61E08B8D0E94E001898D9A8D0F
:1009A000DC01ED91FC910288F389E02D0995EFBE01
:1009B000FE8E4FEF62E1CE010E94BE0269E1CE01E0
:1009C0000E9413047E01B0EEEB1ABEEFFB0A87FD16
:1009D0008D5F85958595F70180836AE1CE010E9440
:1009E000130490E09F878E87D7012C918E859F8579
:1009F00027FF39C0820F911D27FD9A959F878E870B
:100A0000FE01E15EFE4F80818823C9F18E859F85BE
:100A10008D5991099F878E878E8DFE01E25EFE4F74
:100A20008430C8F08F8D8E8388A18F8389A18887B9
:100A30008AA189878D81811107C09E818C81981739
:100A400019F08E818F3F39F48A899B8901969B8B9F
:100A50008A8B81E080838081882309F439CFCE019D
:100A60000E94700335CF24E0880F991F2A95E1F783
:100A70006FE070E00E940E0F7F876E87C1CF8E857A
:100A80009F85845A9109C6CF8C899D8901969D8B3B
:100A90008C8BE5CF80917B0290917C02009711F0C6
:100AA0000C943F0408958091790290917A02009706
:100AB00011F00C943F040895809177029091780290
:100AC000009711F00C943F040895CF93DF93EC014D
:100AD000898D9A8DDC01ED91FC910680F781E02DE6
:100AE000099561E08B8D0E940E0261E08B8D0E9462
:100AF000E00164E670E080E090E00E94640281E042
:100B0000DF91CF9108952FB7F89491E0662339F0E3
:100B100092E0613021F082E08093750290E0809154
:100B20007402892B8093740280917502811103C035
:100B300081E0809375022FBF08958091750288230C
:100B400061F09FB7F8942091750280917302213073
:100B500019F48DBB9FBF08958FBF0895FC013085A8
:100B6000218580917502882381F09FB7F894809148
:100B70007502813069F48DB3809373024DB3809117
:100B80007402809584238DBB9FBF3CBD2DBD08950D
:100B900090937302FACF9FB7F894809172028823E2
:100BA00019F081508093720280917202811105C008
:100BB0008CB58F7B8CBD109275029FBF08958CB54C
:100BC0008F778CBD08958CB580688CBD08956EBDFF
:100BD00000000DB407FEFDCF8EB50895FC017383B0
:100BE00062830895FC01778366830895FC01758311
:100BF0006483089508950895FC0184899589089572
:100C0000FC01828993890895FC0180899189089566
:100C100080E00895FC01738362830895FC01828162
:100C200093810895FC01868597850895FC0181854F
:100C30000895FC0180850895FC0187810895FC01D9
:100C4000868108954095FC0125854223642B6587A4
:100C50000895FC0164870895FC0163870895FC01F1
:100C600062870895FC0164830895FC0165830895FB
:100C70008F929F92AF92BF92CF92DF92EF92FF92AC
:100C8000CF93DF93EC016B010E9497024B015C0153
:100C9000F12CE12C0E949702681979098A099B09B5
:100CA0006C157D058E059F0580F48A819B810397D5
:100CB00089F381E0DF91CF91FF90EF90DF90CF90AB
:100CC000BF90AF909F908F90089580E0F3CFFC018C
:100CD0002281338123303105D1F381E008958F9251
:100CE0009F92AF92BF92CF92DF92EF92FF92CF93FB
:100CF000DF93EC016B010E9497024B015C01F12C28
:100D0000E12C0E949702681979098A099B096C15E0
:100D10007D058E059F05A0F4E881F9810280F381AD
:100D2000E02DCE010995882361F3DF91CF91FF90EB
:100D3000EF90DF90CF90BF90AF909F908F900895ED
:100D400080E0F3CFCF93DF93EC01E881F98102805B
:100D5000F381E02DCE0109958823B9F3DF91CF917E
:100D6000089581E00895FA0120813181A9014F5F42
:100D70005F4F51834083260F371FD9019C932081F9
:100D80003181A9014F5F5F4F51834083620F731F11
:100D9000FB01808308950F931F93CF93DF9300D0BF
:100DA00000D0CDB7DEB78A0169837A838B839C83B9
:100DB000FE013196BE016B5F7F4FD9018D919C91F1
:100DC0001197AC014F5F5F4F4D935C935191800F32
:100DD000911FDC015C936E177F0779F70F900F90DE
:100DE0000F900F90DF91CF911F910F910895EF9287
:100DF000FF921F93CF93DF93182F7B01D0E0C0E0C9
:100E000061E0812F0E94E00162E370E080E090E009
:100E10000E94640260E0812F0E94E00162E370E0C2
:100E200080E090E00E9464022196EC16FD0641F7F6
:100E3000DF91CF911F91FF90EF9008950E943C0F9A
:100E4000CF92DF92EF92FF920F931F93CF93DF9396
:100E5000EC017B018A01E881F9810280F381E02DB8
:100E60000995D82E882329F1E114F104D1F0011558
:100E70001105B9F0CFB6F8948E8D8350990BF80117
:100E80002081281719061CF08E8D84508083F8016C
:100E9000408150E0BE016D5D7F4FC7010E94410F50
:100EA000CFBE8FB7F894FE01E25EFE4F10821E8E19
:100EB0008FBF8D2DDF91CF911F910F91FF90EF90FC
:100EC000DF90CF900895EF92FF920F931F93CF93EF
:100ED000DF9300D01F92CDB7DEB78C010E9465056D
:100EE000E82E81110CC0E12C8E2D0F900F900F90E9
:100EF000DF91CF911F910F91FF90EF900895D8014E
:100F00005C968C91823009F49CC0FF24F39483306A
:100F100051F7F801818D928DDC01ED91FC910488EF
:100F2000F589E02D6F2D099540E861E0C8010E9428
:100F3000BE026AE070E080E090E00E94640261E03E
:100F4000C8010E941304803871F660E0F801848DB6
:100F50000E940E02D8015D968C915D978F3F59F4E7
:100F600080917602843008F0BECF91E0980F909384
:100F700076025D968C93F801858DE82FF0E0EE0FF8
:100F8000FF1FE958FD4F118300836CE575E088234E
:100F900049F063E575E0813029F0823009F0A3CF94
:100FA0006AE475E08F2D0E94920040E06EE0C80177
:100FB0000E94BE0240E06FE0C8010E94BE02C8016C
:100FC0000E94700343E050E062E770E0CE010196BA
:100FD0000E94A20E49816DE1C8010E94BE024A81B1
:100FE0006EE1C8010E94BE024B8166E2C8010E9408
:100FF000BE0240E060E2C8010E94BE0248E061E239
:10100000C8010E94BE024CE666E0C8010E94BE0212
:1010100040E867E0C8010E94BE0240E068E0C80105
:101020000E94BE02F801E15EFE4F108244E06DE4D2
:10103000C8010E94BE0248E869E0C8010E94BE02E1
:1010400053CFF12C66CF0F931F93CF93FC01828176
:10105000938140E054E264EF70E084309105C1F088
:1010600040E052E16AE770E08330910589F040E0AA
:1010700059E06DE370E08230910551F040E452E4B4
:101080006FE070E0019721F440E854E86EE170E011
:10109000A481B58186819781009709F466C081306B
:1010A000910509F45EC08230910509F45CC0039794
:1010B00009F05BC08CE000E012E12AE730E090E04C
:1010C000401751076207730740F436952795179527
:1010D00007959F5F9630A1F797E021E0292730E53B
:1010E000119709F430E72695282B232B208790951C
:1010F00091709187CFB7F89480917202811127C0C7
:10110000ECE9F0E08491E0EBF0E09491E82FF0E07E
:10111000EE0FFF1FE258FF4FA591B491EC91E92328
:1011200021F461E08AE00E94E00161E08AE00E942F
:101130000E028CB580618CBD8CB580648CBD61E085
:101140008DE00E940E0261E08BE00E940E02809111
:1011500072028F5F80937202CFBFCF911F910F9168
:10116000089584E0A8CF88E0A6CF80E0A4CF8F9236
:101170009F92AF92BF92CF92DF92EF92FF92CF9366
:10118000DF93FC012789308D232BB9F1EC010E94FC
:1011900097024B015C0189E0C82ED12CE12CF12C87
:1011A000E881F9810488F589E02DCE01099588232D
:1011B00021F10E949702AB01BC01481959096A0943
:1011C0007B098F89988DB0E0A0E084179507A6076A
:1011D000B707F8F00E944A0EA70196010E94AB0ED5
:1011E0009B01AC012F5F3F4F4F4F5F4FA4E6B0E034
:1011F0000E94CA0E0E946402D3CF81E0DF91CF919A
:10120000FF90EF90DF90CF90BF90AF909F908F9026
:10121000089580E0F3CF1F920F920FB60F92112422
:101220002F933F934F935F936F937F938F939F93EE
:10123000AF93BF93EF93FF9386E892E00E9428015B
:10124000FF91EF91BF91AF919F918F917F916F919E
:101250005F914F913F912F910F900FBE0F901F9074
:1012600018951F920F920FB60F9211242F938F9300
:101270009F93EF93FF93E0919602F0919702808104
:10128000E0919C02F0919D0282FD1BC090818091B3
:101290009F028F5F8F732091A002821741F0E0912F
:1012A0009F02F0E0EA57FD4F958F80939F02FF91D8
:1012B000EF919F918F912F910F900FBE0F901F90E4
:1012C00018958081F4CF1F920F920FB60F921124C0
:1012D0002F933F938F939F93AF93BF9380917E0201
:1012E00090917F02A0918002B091810230917D02A5
:1012F00023E0230F2D3758F50196A11DB11D209332
:101300007D0280937E0290937F02A0938002B0932F
:1013100081028091820290918302A0918402B09117
:1013200085020196A11DB11D8093820290938302D4
:10133000A0938402B0938502BF91AF919F918F914A
:101340003F912F910F900FBE0F901F90189526E898
:10135000230F0296A11DB11DD2CF1F920F920FB67F
:101360000F9211242F933F934F935F936F937F932B
:101370008F939F93AF93BF93EF93FF93E0910201FD
:10138000F09103010995FF91EF91BF91AF919F916A
:101390008F917F916F915F914F913F912F910F901E
:1013A0000FBE0F901F9018951F920F920FB60F92BD
:1013B00011242F933F934F935F936F937F938F935A
:1013C0009F93AF93BF93EF93FF93E0910001F09150
:1013D00001010995FF91EF91BF91AF919F918F917D
:1013E0007F916F915F914F913F912F910F900FBE21
:1013F0000F901F9018951F920F920FB60F92112405
:101400002F933F934F935F936F937F938F939F930C
:10141000AF93BF93CF93DF93EF93FF93809102003D
:1014200090910300049709F0DEC020911B0030E08A
:10143000F901E654FF4F8491F901EA55FF4FD49129
:10144000F901EE56FF4FC491CC2379F081110E942F
:10145000B701EC2FF0E0EE0FFF1FE859FF4FA59109
:10146000B491EC91ED2381E009F480E0817020914A
:101470001E00982F9227821719F083B18F5F83B9CE
:1014800082B18917F1F184B12DE1803508F42BE0A8
:1014900084B1820F84B992B984B1803A08F46EC0E5
:1014A00086B197B19695879597B986B983B18530FE
:1014B00028F086B197B1986097B986B984B1805AFF
:1014C00084B913B885B1882309F482C088B18F5FCD
:1014D00088B98C3008F452C086B197B1982F9F73A9
:1014E000892F86958695887028E0280F281769F03F
:1014F000E82FF0E0E650FE4F3081931739F08F5F10
:10150000F5CF84B18C5E84B9C7CF80E090E1899F2C
:101510009001112486B197B136E0969587953A955A
:10152000E1F7482F9595879595958795887098E070
:10153000980F981749F0E82FF0E0E650FE4F5081E1
:10154000451719F08F5FF5CF80E0822B90916D00E9
:10155000911127C080936C0090916C00973020F01F
:1015600090916C009434E8F015B88091100090913F
:10157000110001969093110080931000FF91EF915C
:10158000DF91CF91BF91AF919F918F917F916F919B
:101590005F914F913F912F910F900FBE0F901F9031
:1015A0001895E0916D0091E09E0F90936D00F0E032
:1015B00081A790916D0080916C00981738F015B854
:1015C00081E080B990E080E00E94A60218B8D6CFF2
:1015D00086B197B188339B4089F681E085B918B808
:1015E00010926D00CBCF8091020090910300039781
:1015F00029F68091700091E0980F9093700081110E
:1016000013C0E0916E008091FF00E817A8F090E011
:1016100080E00E94A602809114009091150001962E
:10162000909315008093140080917000883008F426
:10163000A5CF10927000A2CFF0E0EF58FF4F60816D
:1016400070E080916F0091E0980F90936F0002C05E
:10165000759567958A95E2F7617080911C000E94EC
:10166000E00180916F008630F8F210926F00809157
:101670006E008F5F80936E00D7CFE6E8F2E01382B2
:10168000128288EE93E0A0E0B0E084839583A68385
:10169000B7838EE092E09183808385EC90E095871C
:1016A000848784EC90E09787868780EC90E0918B2C
:1016B000808B81EC90E0938B828B82EC90E0958B19
:1016C000848B86EC90E0978B868B118E128E138E16
:1016D000148EA3E2B3E013961C921E9212971596F5
:1016E0001C921E92149717961C921E92169780E2D7
:1016F00092E011969C938E9380E518968C931897A0
:1017000019961C921997EDE2F3E0138212828FEF83
:1017100084838287838714861586118A108A138AA8
:10172000128A158A148A108E178AB28FA18F9AE0B6
:10173000938F2AE332E03183208310924B0492E0AE
:10174000948F858F0895CF93DF93CDB7DEB7C150C7
:10175000D2400FB6F894DEBF0FBECDBF789484B5EB
:10176000826084BD84B5816084BD85B5826085BD9D
:1017700085B5816085BD80916E00816080936E002B
:10178000109281008091810082608093810080911D
:1017900081008160809381008091800081608093CE
:1017A00080008091B10084608093B1008091B0008E
:1017B00081608093B00080917A00846080937A0089
:1017C00080917A00826080937A0080917A008160B3
:1017D00080937A0080917A00806880937A001092DA
:1017E000C10061E087E00E940E0261E088E00E9493
:1017F0000E02E0919602F091970282E08083E091E0
:101800009202F09193021082E0919402F09195027D
:101810008FEC808310929E02E0919A02F0919B02DD
:1018200086E08083E0919802F09199028081806146
:101830008083E0919802F091990280818860808392
:10184000E0919802F0919902808180688083E09114
:101850009802F091990280818F7D80838DE293E0E0
:101860000E946307811106C062E070E087E090E0AB
:101870000E94F70644EE66E08DE293E00E94BE020D
:1018800040EC67E08DE293E00E94BE0240E068E039
:101890008DE293E00E94BE0281E080934C044FE70A
:1018A00069E08DE293E00E94BE0261E070E088E0B2
:1018B00090E00E94F70662E370E080E090E00E9412
:1018C000640281E189831A8298E49B8383E08C839C
:1018D00080912F0390913003039721F08DE293E0E4
:1018E0000E94000344E0BE016F5F7F4F8DE293E0F2
:1018F0000E9484038DE293E00E94670662E070E03C
:1019000088E090E00E94F706198282E08A831B82B9
:101910008C838D838CE2E8E0F1E0DE01A058BE4FBD
:1019200001900D928A95E1F78CE2E4E3F1E0DE01AB
:10193000AC5ABE4F01900D928A95E1F786E1E0E640
:10194000F1E0DE01A852BE4F01900D928A95E1F7B9
:1019500086E1E6E7F1E0DE01AE53BE4F01900D9265
:101960008A95E1F786E1ECE8F1E0DE01A455BE4F8F
:1019700001900D928A95E1F78CE2E2EAF1E0DE0156
:10198000A85DBE4F01900D928A95E1F78CE2EEECD6
:10199000F1E0DE01A450BF4F01900D928A95E1F76E
:1019A000A5E0B0E0C251DE4FB983A883CE5ED1403E
:1019B0008E0104501F4FFE01E85DFE4F5F01CE0116
:1019C00084559E4F6C01DE01AE53BE4F7D01E05544
:1019D000FF4F2F01885591091C01A254B1093D0107
:1019E0004801BCE28B0E911CF80181919191A1916B
:1019F000B1918F01C051DE4F88839983AA83BB8345
:101A0000C05FD140F50181919191A191B1915F01A8
:101A1000CC50DE4F88839983AA83BB83C45FD140B7
:101A2000D601ED91FD916D01C850DE4FF983E88339
:101A3000C85FD140D701ED91FD917D01C650DE4FC9
:101A4000F983E883CA5FD140D201ED91FD912D0168
:101A5000C450DE4FF983E883CC5FD140F10181911E
:101A60009191A191B1911F01C250DE4F888399835A
:101A7000AA83BB83CE5FD140D3016D917D918D91BF
:101A80009D913D019E0122513E4FAE014F5F5F4F40
:101A90000E94CB069E0122513E4FAE014F5F5F4F29
:101AA000C250DE4F688179818A819B81CE5FD140AF
:101AB0000E94CB06AE0142515E4FBE016F5F7F4F69
:101AC000C450DE4F88819981CC5FD1400E94B3061B
:101AD000AE0142515E4FBE016F5F7F4FC650DE4F79
:101AE00088819981CA5FD1400E94B306AE014251FC
:101AF0005E4FBE016F5F7F4FC850DE4F8881998176
:101B0000C85FD1400E94B3069E0122513E4FAE01F4
:101B10004F5F5F4FCC50DE4F688179818A819B8116
:101B2000C45FD1400E94CB069E0122513E4FAE01C0
:101B30004F5F5F4FC051DE4F688179818A819B8101
:101B4000C05FD1400E94CB068016910609F04CCFB1
:101B50004BEFBE016F5F7F4F8DE293E00E948403E5
:101B60008DE293E00E94670662E070E088E090E01A
:101B70000E94F7068BEFC450DF4F8883CC5FD040C4
:101B800080912F0390913003049721F08DE293E030
:101B90000E94130368E873E18DE293E00E946F06F0
:101BA0008823F9F0AE0144505F4FBE016F5F7F4F55
:101BB0008DE293E00E942007882399F08981877045
:101BC000813031F461E070E087E090E00E94F70638
:101BD0008D81823031F462E070E087E090E00E9415
:101BE000F706E0E0F0E0EF2B09F46BCE0E94140161
:101BF000882309F466CE0E94000063CE8F929F92E4
:101C0000AF92BF92CF92DF92EF92FF92CF93DF938A
:101C1000EC01688179818A819B816115710581055B
:101C2000910521F464E279ED8BE597E02DE133EF46
:101C300041E050E00E94AB0E49015A019B01AC010A
:101C4000A7EAB1E40E94CA0E6B017C01ACEEB4EFCE
:101C5000A50194010E94D80EC60ED71EE81EF91EDB
:101C6000F7FE06C081E0C81AD108E10880E8F80A4A
:101C7000C882D982EA82FB82C701B6019F77DF91D1
:101C8000CF91FF90EF90DF90CF90BF90AF909F905B
:101C90008F9008958F929F92AF92BF92CF92DF92D2
:101CA000EF92FF926091040170910501809106010D
:101CB00090910701611571058105910521F464E298
:101CC00079ED8BE597E02DE133EF41E050E00E94A4
:101CD000AB0E49015A019B01AC01A7EAB1E40E9495
:101CE000CA0E6B017C01ACEEB4EFA50194010E9419
:101CF000D80EC60ED71EE81EF91EF7FE06C081E0FC
:101D0000C81AD108E10880E8F80AC0920401D0920C
:101D10000501E0920601F0920701C701B6019F7725
:101D2000FF90EF90DF90CF90BF90AF909F908F90FB
:101D300008956093040170930501809306019093C8
:101D400007010895FB01DC0102C005900D9241508E
:101D50005040D8F70895052E97FB1EF400940E947A
:101D6000C20E57FD07D00E94DD0E07FC03D04EF4D3
:101D70000C94C20E50954095309521953F4F4F4F92
:101D80005F4F089590958095709561957F4F8F4F27
:101D90009F4F08950E94FF0EA59F900DB49F900D38
:101DA000A49F800D911D11240895B7FF0C94CA0EB5
:101DB0000E94CA0E821B930B0895A1E21A2EAA1B41
:101DC000BB1BFD010DC0AA1FBB1FEE1FFF1FA217EB
:101DD000B307E407F50720F0A21BB30BE40BF50BE8
:101DE000661F771F881F991F1A9469F76095709571
:101DF000809590959B01AC01BD01CF010895A29FF4
:101E0000B001B39FC001A39F700D811D1124911DCE
:101E1000B29F700D811D1124911D089597FB072E0F
:101E200016F4009407D077FD09D00E94220F07FC1A
:101E300005D03EF4909581959F4F089570956195DA
:101E40007F4F0895AA1BBB1B51E107C0AA1FBB1FF0
:101E5000A617B70710F0A61BB70B881F991F5A9536
:101E6000A9F780959095BC01CD010895EE0FFF1F55
:101E70000590F491E02D099481E090E0F8940C94A1
:101E80004A0FFB01DC0102C001900D92415050400D
:081E9000D8F70895F894FFCF84
:101E9800A302A3020100000017A5564B1EA5564B2E
:101EA80028A5564B33A5564B3DA5564B47A5564B33
:101EB80050A5564B5BA5564B65A5564B6FA5564B83
:101EC80078A5564BA4705D40A4705D40A4705D4039
:101ED800A4705D40A4705D40A4705D40A4705D4036
:101EE800A4705D40A4705D40A4705D40A4705D4026
:101EF8002600D4FFD3FFDCFFF4FF11002C003D00C7
:101F0800440053005F00E8FFF4FF050012001D00C5
:101F180020001A00170027003E004D008C00940096
:101F280097009C0093008A008A0089008D00830036
:101F38008400AE47E13F3D0AD73F3D0AD73F3D0AFF
:101F4800D73FEC51D83FEC51D83F9A99D93F48E157
:101F5800DA3F48E1DA3FF628DC3FA470DD3F33334F
:101F6800B3BFA470BDBFA470BDBFF628BCBFA4702A
:101F7800BDBFF628BCBFF628BCBFF628BCBF48E1E9
:101F8800BABF48E1BABF9A99B9BF0D0E1315161911
:101F98001A1C232526292A2C3234000000004A0165
:101FA800AA00D70097010801E600FA000000000027
:101FB800E705E305DF052308CB05F605F205EE0581
:101FC800AE059D0583050000000063072603200772
:101FD8008403A402A206670638066F06B7083E0304
:101FE80032062F062C062906220635061F061C0671
:101FF8001906160612060E060A065B0304060006F4
:02200800FC05D5
:00000001FF
