:100000000C9469000C94FB0A0C94D40A0C94910093
:100010000C9491000C9491000C9491000C9491001C
:100020000C9491000C9491000C9491000C94220B70
:100030000C9491000C9491000C9491000C949100FC
:100040000C948A0A0C9491000C94580A0C94320A6D
:100050000C9491000C9491000C9491000C949100DC
:100060000C9491000C9491000000000023002600E5
:10007000290072740492740448940478C40C00003B
:100080000000240027002A000000000025002800AE
:100090002B00040404040404040402020202020209
:1000A000030303030303010204081020408001023C
:1000B00004081020010204081020000000080002BB
:1000C0000100000304070000000000000000640CB1
:1000D000E50F11241FBECFEFD8E0DEBFCDBF12E089
:1000E000A0E0B1E0E8EFF4E202C005900D92A8377D
:1000F000B107D9F724E0A8E7B2E001C01D92AE3500
:10010000B207E1F710E0C8E6D0E004C02197FE0195
:100110000E943611C736D107C9F70E942B0D0C94E7
:100120006F120C940000E82FF0E0EE0FFF1FE0507C
:10013000FF4F71836083813039F080916900836063
:1001400080936900E89A0895809169008C6080939B
:100150006900E99A08950F931F93CF93DF936091FD
:10016000290370912A03C0912D03D0912E03DB0146
:1001700085E040E157E290E02991222391F030E0C0
:1001800024173507B9F4E82FF0E0EE0FFF1FE60F54
:10019000F71F0D911C911197208131812017310794
:1001A0006CF412969F5F953039F7DF91CF911F91D4
:1001B0000F91089524173507A4F7A901892FF1CFCE
:1001C0002F923F924F925F926F927F928F929F9267
:1001D000AF92BF92CF92DF92EF92FF920F931F9355
:1001E000CF93DF9300D01F92CDB7DEB750E040E051
:1001F000812C912C5401DC010D91CD0110E030E0F7
:1002000020E0042E04C0000F111F221F331F0A9488
:10021000D2F7802A912AA22AB32A485F5F4F403240
:10022000510549F775016401E3E0F694E794D7942A
:10023000C794EA95D1F7A601E0912B03F0912C0326
:10024000CF01DF0130E020E00D911D9140175107F3
:1002500001F58091290390912A03280F391FD901B4
:100260006D937C93C6010F900F900F90DF91CF910B
:100270001F910F91FF90EF90DF90CF90BF90AF90C4
:100280009F908F907F906F905F904F903F902F90B6
:1002900008952E5F3F4F2A303105B1F653E1B694F1
:1002A000A794979487945A95D1F7898230E020E0FB
:1002B0008901000F111F1B830A83DC0102964D91F7
:1002C0005C911197452BA1F4CD92DC92809129038A
:1002D00090912A03080F191FD8016D937C93809188
:1002E0002D0390912E03280F391FF9018082BACF78
:1002F0002F5F3F4F25303105D9F620902D033090E8
:100300002E034091290350912A0331015B834A83D4
:1003100025E0422E00EF18ED512CD3012D913D0127
:100320002223B1F030E020173107A1F5A42DB0E071
:10033000AA0FBB1FCD01840F951FAA81BB812D91F0
:100340003C91DC018D919C91821793070CF0452C18
:100350008A819B8102969B838A83539495E05912EC
:10036000DCCF491609F47ECF512CD101A40DB51D67
:100370008C910981801708F475CF440C551CE40D4D
:10038000F51DD182C082440D551DFA017183608331
:100390008C9268CF02171307DCF68901D8CFFC01D5
:1003A000538D448D252F30E0842F90E0821B930BDA
:1003B000541710F0CF96089501970895FC01918D80
:1003C000828D981761F0A28DAE0FBF2FB11D5D9683
:1003D0008C91928D9F5F9F73928F90E008958FEF25
:1003E0009FEF0895FC01918D828D981731F0828DD9
:1003F000E80FF11D858D90E008958FEF9FEF089530
:10040000FC01918D228D892F90E0805C9F4F821B93
:1004100091098F7399270895FC01A48DA80FB92F16
:10042000B11DA35ABF4F2C91848D90E001968F731C
:100430009927848FA689B7892C93A089B1898C913B
:10044000837080648C93938D848D981306C002888A
:10045000F389E02D80818F7D80830895EF92FF9254
:100460000F931F93CF93DF93EC0181E0888F9B8DD7
:100470008C8D98131AC0E889F989808185FF15C091
:100480009FB7F894EE89FF896083E889F9898081B4
:100490008370806480839FBF81E090E0DF91CF9183
:1004A0001F910F91FF90EF900895F62E0B8D10E0A5
:1004B0000F5F1F4F0F731127E02E8C8D8E110CC014
:1004C0000FB607FCFACFE889F989808185FFF5CF5F
:1004D000CE010E940C02F1CFEB8DEC0FFD2FF11D30
:1004E000E35AFF4FF0829FB7F8940B8FEA89FB899C
:1004F00080818062CFCFCF93DF93EC01888D8823FA
:10050000B9F0AA89BB89E889F9898C9185FD03C076
:10051000808186FD0DC00FB607FCF7CF8C9185FF5B
:10052000F2CF808185FFEDCFCE010E940C02E9CF92
:10053000DF91CF9108958CE892E00E94000221E0C3
:10054000892B09F420E0822F089580E090E0892B28
:1005500029F00E949B0281110C9400000895FC0177
:10056000868597850895AF92BF92CF92DF92EF92E2
:10057000FF920F931F93CF93DF936C017B018B014D
:10058000040F151FEB015E01AE18BF08C017D1079D
:1005900059F06991D601ED91FC910190F081E02D27
:1005A000C6010995892B79F7C501DF91CF911F917C
:1005B0000F91FF90EF90DF90CF90BF90AF90089594
:1005C000833081F028F4813099F08230A9F00895C9
:1005D0008730A9F08830C9F08430B1F48091800070
:1005E0008F7D03C0809180008F7780938000089575
:1005F00084B58F7784BD089584B58F7DFBCF8091BE
:10060000B0008F778093B00008958091B0008F7D07
:10061000F9CF1F93CF93DF93282F30E0F901E654F1
:10062000FF4F8491F901EA55FF4FD491F901EE563D
:10063000FF4FC491CC23A9F0162F81110E94E00234
:10064000EC2FF0E0EE0FFF1FE857FF4FA591B4919C
:100650008FB7F894EC91111108C0D095DE23DC938C
:100660008FBFDF91CF911F910895DE2BF8CFCF93ED
:10067000DF9390E0FC01EA55FF4F24918E569F4F87
:10068000FC0184918823D1F090E0880F991FFC0130
:10069000E258FF4FA591B491FC01E857FF4FC59177
:1006A000D49161110EC09FB7F8948C91E22FE09520
:1006B0008E238C932881E223E8839FBFDF91CF9123
:1006C00008958FB7F894EC91E22BEC938FBFF6CF9F
:1006D0003FB7F8948091880290918902A0918A0294
:1006E000B0918B0226B5A89B05C02F3F19F001964B
:1006F000A11DB11D3FBFBA2FA92F982F8827BC017C
:10070000CD01620F711D811D911D42E0660F771FA3
:10071000881F991F4A95D1F708958F929F92AF92A3
:10072000BF92CF92DF92EF92FF926B017C010E9409
:1007300068034B015C01C114D104E104F104B9F078
:100740000E946803681979098A099B09683E734009
:100750008105910580F321E0C21AD108E108F10872
:1007600088EE880E83E0981EA11CB11CE4CFFF9098
:10077000EF90DF90CF90BF90AF909F908F900895B3
:100780002FB7F8946091840270918502809186025F
:10079000909187022FBF089508958BEF0895CF930E
:1007A000DF93FC01228133812230310569F0EC01B5
:1007B000678D858D0E94090360E08C8D0E9409037E
:1007C00082E090E09B838A83DF91CF910895FF922E
:1007D0000F931F93CF93DF93EC01162FF42E0FB7D7
:1007E000F894898D9A8DDC01ED91FC910088F18956
:1007F000E02D099560E08B8D0E940903898D9A8D0B
:10080000612F6068DC01ED91FC910190F081E02D99
:100810000995182F898D9A8DDC01ED91FC9101903D
:10082000F081E02D6F2D099561E08B8D0E94090309
:10083000898D9A8DDC01ED91FC910288F389E02D80
:1008400009950FBF812FDF91CF911F910F91FF90DD
:100850000895CF93DF93EC018A819B81059771F016
:1008600047E061E0CE010E94E70340E860E4CE018A
:100870000E94E70385E090E09B838A838A819B81C5
:100880000597E1F38E89DF91CF910895CF93DF93A0
:10089000FC01228133812330310571F0EC0143E00A
:1008A00061E00E94E70340E460E4CE010E94E703B8
:1008B00083E090E09B838A83DF91CF910895CF936B
:1008C000DF93FC01228133812430310571F0EC018A
:1008D00045E061E00E94E70340E060E4CE010E9451
:1008E000E70384E090E09B838A83DF91CF910895B2
:1008F000CF93DF93FC01228133812330310549F00E
:10090000EC010E945F04C25EDE4F8881DF91CF91CF
:10091000089580E0FBCFCF93DF93FC0122813381E8
:100920002130310549F0EC0140E061E00E94E7032D
:1009300081E090E09B838A8381E0DF91CF910895ED
:10094000CF93DF93FC01228133812230310549F0BE
:10095000EC0141E061E00E94E70382E090E09B83CC
:100960008A83DF91CF910895BF92CF92DF92EF9269
:10097000FF920F931F93CF93DF934C3F60F0E12CD6
:100980008E2DDF91CF911F910F91FF90EF90DF900F
:10099000CF90BF900895142F072FF62EEC01E88119
:1009A000F9810484F585E02D0995CE010E94A0040B
:1009B000E881F9810288F389E02DCE010995E82EBE
:1009C0008823E9F240E06DE0CE010E94E7034A850A
:1009D00060E0CE010E94E7034B8560E0CE010E94FB
:1009E000E7034C8560E0CE010E94E7034D8560E09F
:1009F000CE010E94E703BFB6F894898D9A8DDC0181
:100A0000ED91FC910088F189E02D099560E08B8DD6
:100A10000E940903898D9A8DDC01ED91FC91019072
:100A2000F081E02D60E80995CF2CD02E012F0150E8
:100A300068F0898D9A8DF60161916F01DC01ED916D
:100A4000FC910190F081E02D0995F1CF61E08B8D53
:100A50000E940903898D9A8DDC01ED91FC91028839
:100A6000F389E02D0995BFBE44E0410F62E2CE015B
:100A70000E94E703CE010E94460482CF0F931F938A
:100A8000CF93DF93EC01162F0FB7F89460E08B8DB6
:100A90000E940903898D9A8DDC01ED91FC910190F2
:100AA000F081E02D612F0995898D9A8DDC01ED9102
:100AB000FC910190F081E02D60E00995182F61E034
:100AC0008B8D0E9409030FBF812FDF91CF911F9162
:100AD0000F910895CF92DF92EF92FF921F93CF93E1
:100AE000DF93EC0162E10E943E05182F6CE1CE011C
:100AF0000E943E052A813B812430310529F58295EB
:100B000086958695837091E0892780FBEE24E0F836
:100B1000F12C812F807AE82AEF28B1F08889998911
:100B20000196998B888B4FEF62E1CE010E94E7031B
:100B30004FEF62E1CE01DF91CF911F91FF90EF90D7
:100B4000DF90CF900C94E7038A819B81049711F486
:100B500016FD0FC08A819B81039711F413FDBFC05E
:100B60008A819B810597F9F612FFDDCF11701E8BEC
:100B7000A1C063E1CE010E943E05F82E60E1CE01E6
:100B80000E943E05482F6DE0CE010E94E703EFB6BC
:100B9000F894898D9A8DDC01ED91FC910088F189A2
:100BA000E02D099560E08B8D0E940903898D9A8D57
:100BB000DC01ED91FC910190F081E02D60E0099560
:100BC0006E01BFE1CB0ED11C1F2D115070F0898D2D
:100BD0009A8DDC01ED91FC910190F081E02D60E0B7
:100BE0000995F60181936F01F0CF61E08B8D0E9432
:100BF0000903898D9A8DDC01ED91FC910288F389BE
:100C0000E02D0995EFBEFE8E4FEF62E1CE010E940E
:100C1000E70369E1CE010E943E057E01B0EEEB1ACA
:100C2000BEEFFB0A87FD8D5F85958595F701808373
:100C30006AE1CE010E943E0590E09F878E87D70132
:100C40002C918E859F8527FF39C0820F911D27FD2E
:100C50009A959F878E87FE01E15EFE4F80818823F3
:100C6000C9F18E859F858D5991099F878E878E8DBD
:100C7000FE01E25EFE4F8430C8F08F8D8E8388A126
:100C80008F8389A188878AA189878D81811107C077
:100C90009E818C81981719F08E818F3F39F48A8953
:100CA0009B8901969B8B8A8B81E08083808188233E
:100CB00009F439CFCE010E94A00435CF24E0880F7B
:100CC000991F2A95E1F76FE070E00E940E117F876F
:100CD0006E87C1CF8E859F85845A9109C6CF8C8936
:100CE0009D8901969D8B8C8BE5CF8091810290919F
:100CF0008202009711F00C946A05089580917F029A
:100D000090918002009711F00C946A0508958091EB
:100D10007D0290917E02009711F00C946A0508956F
:100D2000CF93DF93EC01898D9A8DDC01ED91FC91DD
:100D30000680F781E02D099561E08B8D0E943703D5
:100D400061E08B8D0E94090364E670E080E090E032
:100D50000E948D0381E0DF91CF9108952FB7F89421
:100D600091E0662339F092E0613021F082E08093D7
:100D70007B0290E080917A02892B80937A028091A5
:100D80007B02811103C081E080937B022FBF089515
:100D900080917B02882361F09FB7F89420917B02B9
:100DA00080917902213019F48DBB9FBF08958FBFC8
:100DB0000895FC013085218580917B02882381F094
:100DC0009FB7F89480917B02813069F48DB3809352
:100DD00079024DB380917A02809584238DBB9FBFA9
:100DE0003CBD2DBD089590937902FACF9FB7F8943A
:100DF00080917802882319F0815080937802809145
:100E00007802811105C08CB58F7B8CBD10927B025E
:100E10009FBF08958CB58F778CBD08958CB5806881
:100E20008CBD08956EBD00000DB407FEFDCF8EB5DC
:100E30000895FC01738362830895FC0177836683C0
:100E40000895FC0175836483089508950895FC0155
:100E5000848995890895FC01828993890895FC010C
:100E600080899189089580E00895FC0173836283ED
:100E70000895FC01828193810895FC018185089584
:100E8000FC0180850895FC0187810895FC0186811D
:100E900008954095FC0125854223642B65870895BC
:100EA000FC0164870895FC0163870895FC01628753
:100EB0000895FC0164830895FC01658308958F9271
:100EC0009F92AF92BF92CF92DF92EF92FF92CF9319
:100ED000DF93EC016B010E94C0034B015C01F12C1C
:100EE000E12C0E94C003681979098A099B096C15D5
:100EF0007D058E059F0580F48A819B81039789F388
:100F000081E0DF91CF91FF90EF90DF90CF90BF9085
:100F1000AF909F908F90089580E0F3CFFC012281E5
:100F2000338123303105D1F381E008958F929F9270
:100F3000AF92BF92CF92DF92EF92FF92CF93DF9367
:100F4000EC016B010E94C0034B015C01F12CE12C10
:100F50000E94C003681979098A099B096C157D05EF
:100F60008E059F05A0F4E881F9810280F381E02DD0
:100F7000CE010995882361F3DF91CF91FF90EF9027
:100F8000DF90CF90BF90AF909F908F90089580E0BA
:100F9000F3CFCF93DF93EC01E881F9810280F381F5
:100FA000E02DCE0109958823B9F3DF91CF91089503
:100FB00081E00895FA0120813181A9014F5F5F4FDF
:100FC00051834083260F371FD9019C9320813181A3
:100FD000A9014F5F5F4F51834083620F731FFB0175
:100FE000808308950F931F93CF93DF9300D000D099
:100FF000CDB7DEB78A0169837A838B839C83FE0138
:101000003196BE016B5F7F4FD9018D919C911197F5
:10101000AC014F5F5F4F4D935C935191800F911FD7
:10102000DC015C936E177F0779F70F900F900F909C
:101030000F90DF91CF911F910F910895EF92FF9242
:101040001F93CF93DF93182F7B01D0E0C0E061E0C6
:10105000812F0E94090362E370E080E090E00E942B
:101060008D0360E0812F0E94090362E370E080E05D
:1010700090E00E948D032196EC16FD0641F7DF916A
:10108000CF911F91FF90EF9008950E946112CF922F
:10109000DF92EF92FF920F931F93CF93DF93EC01B8
:1010A0007B018A01E881F9810280F381E02D0995B5
:1010B000D82E882329F1E114F104D1F0011511058E
:1010C000B9F0CFB6F8948E8D8350990BF80120813A
:1010D000281719061CF08E8D84508083F8014081FA
:1010E00050E0BE016D5D7F4FC7010E946612CFBE0A
:1010F0008FB7F894FE01E25EFE4F10821E8E8FBF06
:101100008D2DDF91CF911F910F91FF90EF90DF9088
:10111000CF900895EF92FF920F931F93CF93DF9399
:1011200000D01F92CDB7DEB78C010E949006E82E4A
:1011300081110CC0E12C8E2D0F900F900F90DF913C
:10114000CF911F910F91FF90EF900895D8015C9679
:101150008C91823009F49CC0FF24F394833051F7C2
:10116000F801818D928DDC01ED91FC910488F58967
:10117000E02D6F2D099540E861E0C8010E94E7036A
:101180006AE070E080E090E00E948D0361E0C801B9
:101190000E943E05803871F660E0F801848D0E945F
:1011A0003703D8015D968C915D978F3F59F48091FC
:1011B0007C02843008F0BECF91E0980F90937C02BF
:1011C0005D968C93F801858DE82FF0E0EE0FFF1F00
:1011D000E358FD4F1183008367E876E0882349F0E8
:1011E0006EE776E0813029F0823009F0A3CF65E721
:1011F00076E08F2D0E94930040E06EE0C8010E94CF
:10120000E70340E06FE0C8010E94E703C8010E94C5
:10121000A00443E050E062E770E0CE0101960E9436
:10122000A21049816DE1C8010E94E7034A816EE185
:10123000C8010E94E7034B8166E2C8010E94E703F0
:1012400040E060E2C8010E94E70348E061E2C801B3
:101250000E94E7034CE666E0C8010E94E70340E80D
:1012600067E0C8010E94E70340E068E0C8010E940F
:10127000E703F801E15EFE4F108244E06DE4C8012F
:101280000E94E70348E869E0C8010E94E70353CFE2
:10129000F12C66CF0F931F93CF93FC018281938132
:1012A00040E054E264EF70E084309105C1F040E02A
:1012B00052E16AE770E08330910589F040E059E03F
:1012C0006DE370E08230910551F040E452E46FE04C
:1012D00070E0019721F440E854E86EE170E0A481E9
:1012E000B58186819781009709F466C081309105A8
:1012F00009F45EC08230910509F45CC0039709F0DF
:101300005BC08CE000E012E12AE730E090E040179B
:1013100051076207730740F436952795179507958F
:101320009F5F9630A1F797E021E0292730E51197DC
:1013300009F430E72695282B232B20879095917070
:101340009187CFB7F89480917802811127C0ECE99A
:10135000F0E08491E0EBF0E09491E82FF0E0EE0F04
:10136000FF1FE258FF4FA591B491EC91E92321F4BE
:1013700061E08AE00E94090361E08AE00E9437038D
:101380008CB580618CBD8CB580648CBD61E08DE0D6
:101390000E94370361E08BE00E943703809178025E
:1013A0008F5F80937802CFBFCF911F910F910895E7
:1013B00084E0A8CF88E0A6CF80E0A4CF8F929F9250
:1013C000AF92BF92CF92DF92EF92FF92CF93DF93D3
:1013D000FC012789308D232BB9F1EC010E94C00359
:1013E0004B015C0189E0C82ED12CE12CF12CE88165
:1013F000F9810488F589E02DCE010995882321F132
:101400000E94C003AB01BC01481959096A097B0954
:101410008F89988DB0E0A0E084179507A607B707DD
:10142000F8F00E944A10A70196010E94AB109B01A0
:10143000AC012F5F3F4F4F4F5F4FA4E6B0E00E94DB
:10144000CA100E948D03D3CF81E0DF91CF91FF902E
:10145000EF90DF90CF90BF90AF909F908F900895C6
:1014600080E0F3CF1F920F920FB60F9211242F93AB
:101470003F934F935F936F937F938F939F93AF931C
:10148000BF93EF93FF938CE892E00E940C02FF91D0
:10149000EF91BF91AF919F918F917F916F915F91EC
:1014A0004F913F912F910F900FBE0F901F90189565
:1014B0001F920F920FB60F9211242F938F939F9329
:1014C000EF93FF93E0919C02F0919D028081E09167
:1014D000A202F091A30282FD1BC090818091A5021F
:1014E0008F5F8F732091A602821741F0E091A502D1
:1014F000F0E0E457FD4F958F8093A502FF91EF91A7
:101500009F918F912F910F900FBE0F901F90189564
:101510008081F4CF1F920F920FB60F9211242F9358
:101520003F938F939F93AF93BF9380918402909149
:101530008502A0918602B09187023091830223E058
:10154000230F2D3758F50196A11DB11D209383025D
:101550008093840290938502A0938602B0938702C1
:101560008091880290918902A0918A02B0918B02A9
:101570000196A11DB11D8093880290938902A093CA
:101580008A02B0938B02BF91AF919F918F913F914F
:101590002F910F900FBE0F901F90189526E8230FE4
:1015A0000296A11DB11DD2CF1F920F920FB60F92BE
:1015B00011242F933F934F935F936F937F938F9358
:1015C0009F93AF93BF93EF93FF93E0910201F0914C
:1015D00003010995FF91EF91BF91AF919F918F9179
:1015E0007F916F915F914F913F912F910F900FBE1F
:1015F0000F901F9018951F920F920FB60F92112403
:101600002F933F934F935F936F937F938F939F930A
:10161000AF93BF93EF93FF93E0910001F09101012D
:101620000995FF91EF91BF91AF919F918F917F911C
:101630006F915F914F913F912F910F900FBE0F903F
:101640001F9018951F920F920FB60F9211242F938F
:101650003F934F935F936F937F938F939F93AF933A
:10166000BF93CF93DF93EF93FF938091020090910C
:101670000300049709F0DEC020911B0030E0F9015F
:10168000E654FF4F8491F901EA55FF4FD491F901D7
:10169000EE56FF4FC491CC2379F081110E94E002F5
:1016A000EC2FF0E0EE0FFF1FE859FF4FA591B4912A
:1016B000EC91ED2381E009F480E0817020911E001F
:1016C000982F9227821719F083B18F5F83B982B167
:1016D0008917F1F184B12DE1803508F42BE084B154
:1016E000820F84B992B984B1803A08F46EC086B191
:1016F00097B19695879597B986B983B1853028F0CB
:1017000086B197B1986097B986B984B1805A84B987
:1017100013B885B1882309F482C088B18F5F88B976
:101720008C3008F452C086B197B1982F9F73892FDF
:1017300086958695887028E0280F281769F0E82F8D
:10174000F0E0E050FE4F3081931739F08F5FF5CF16
:1017500084B18C5E84B9C7CF80E090E1899F90010D
:10176000112486B197B136E0969587953A95E1F7C1
:10177000482F9595879595958795887098E0980F4F
:10178000981749F0E82FF0E0E050FE4F50814517E0
:1017900019F08F5FF5CF80E0822B90916D00911151
:1017A00027C080936C0090916C00973020F090914E
:1017B0006C009434E8F015B88091100090911100FD
:1017C00001969093110080931000FF91EF91DF91AB
:1017D000CF91BF91AF919F918F917F916F915F91C9
:1017E0004F913F912F910F900FBE0F901F90189522
:1017F000E0916D0091E09E0F90936D00F0E081A765
:1018000090916D0080916C00981738F015B881E0C8
:1018100080B990E080E00E94CF0318B8D6CF86B19F
:1018200097B188339B4089F681E085B918B810924A
:101830006D00CBCF8091020090910300039729F6B1
:101840008091700091E0980F90937000811113C007
:10185000E0916E008091FF00E817A8F090E080E032
:101860000E94CF03809114009091150001969093EF
:1018700015008093140080917000883008F4A5CF83
:1018800010927000A2CFF0E0EF58FF4F608170E03F
:1018900080916F0091E0980F90936F0002C0759552
:1018A00067958A95E2F7617080911C000E94090398
:1018B00080916F008630F8F210926F0080916E0078
:1018C0008F5F80936E00D7CF10928F0210928E029E
:1018D00088EE93E0A0E0B0E08093900290939102B4
:1018E000A0939202B093930284E192E090938D02D0
:1018F00080938C0285EC90E09093990280939802FB
:1019000084EC90E090939B0280939A0280EC90E0AC
:1019100090939D0280939C0281EC90E090939F02B3
:1019200080939E0282EC90E09093A1028093A002AB
:1019300086EC90E09093A3028093A2021092A502FD
:101940001092A6021092A7021092A80210923203DF
:101950001092310310923403109233031092360325
:101960001092350386E292E09093300380932F0328
:1019700080E5809337031092380310923C03109255
:101980003B038FEF80933D03809343038093440395
:10199000109245031092460310924A031092490395
:1019A00010924C0310924B0310924E0310924D0371
:1019B00010925103109250032FE233E030935303FF
:1019C000209352039AE09093540320E432E0309342
:1019D0003A03209339031092570492E090935503F1
:1019E000809356038AE090E00E943C1190932A0372
:1019F000809329038AE090E00E943C1190932C038D
:101A000080932B0385E090E00E943C1190932E037D
:101A100080932D0390E080E09C01220F331FA09162
:101A20002903B0912A03A20FB31F1D921C92E091CB
:101A30002B03F0912C03E20FF31F11821082E0912F
:101A40002D03F0912E03E80FF91F108201968530C7
:101A5000910511F70895CF93DF93CDB7DEB7CF5F30
:101A6000D2400FB6F894DEBF0FBECDBF789484B5D8
:101A7000826084BD84B5816084BD85B5826085BD8A
:101A800085B5816085BD80916E00816080936E0018
:101A9000109281008091810082608093810080910A
:101AA00081008160809381008091800081608093BB
:101AB00080008091B10084608093B1008091B0007B
:101AC00081608093B00080917A00846080937A0076
:101AD00080917A00826080937A0080917A008160A0
:101AE00080937A0080917A00806880937A001092C7
:101AF000C10061E087E00E94370361E088E00E9456
:101B0000370389E393E00E948A08811106C062E0EE
:101B100070E087E090E00E941E0844EE66E089E3F2
:101B200093E00E94E70340EC67E089E393E00E94C2
:101B3000E70340E068E089E393E00E94E70381E087
:101B4000809358044FE769E089E393E00E94E7033C
:101B500061E070E088E090E00E941E0862E370E0BF
:101B600080E090E00E948D038BEFC551DD4F8883AC
:101B7000CB5ED24013E009E150E2F52E63E0E62EA1
:101B800009831A82FB82EC8289E393E00E94460477
:101B900044E0BE016F5F7F4F89E393E00E94B4048D
:101BA00089E393E00E948E0761E070E088E090E0B6
:101BB0000E941E0889E393E00E945F0464EF71E0D5
:101BC00089E393E00E9496078823E9F0AE0145512E
:101BD0005D4FBE0164507F4F89E393E00E94470848
:101BE000882389F0C450DF4F8881CC5FD040877054
:101BF000813049F46091470370914803CE018450CD
:101C00009F4F0E94E000115009F0BACF43E0E42E4C
:101C1000F12C0E94AB00853009F496C190E0880F4A
:101C2000991FE0912B03F0912C03E80FF91F80819D
:101C30009181198223E02A839B838C8382E08D83A8
:101C40008CE2EEE0F1E0DE01A558BD4F01900D926F
:101C50008A95E1F78CE2EAE3F1E0DE01A15BBD4F9A
:101C600001900D928A95E1F786E1E6E6F1E0DE016A
:101C7000AD52BD4F01900D928A95E1F786E1ECE7F8
:101C8000F1E0DE01A354BD4F01900D928A95E1F77A
:101C900086E1E2E9F1E0DE01A955BD4F01900D9228
:101CA0008A95E1F78CE2E8EAF1E0DE01AD5DBD4F37
:101CB00001900D928A95E1F78CE2E4EDF1E0DE010E
:101CC000A950BE4F01900D928A95E1F7A5E0B0E0D2
:101CD000C751DD4FB983A883C95ED2408E01095038
:101CE0001E4FFE01ED5DFD4F5F01CE0189559D4FF9
:101CF0006C01DE01A354BD4FC451DD4FB983A883ED
:101D0000CC5ED240E055FF4F2F01885591091C0150
:101D1000A254B1093D014801BCE28B0E911CF801AF
:101D200081919191A191B1918F01C251DD4F888331
:101D30009983AA83BB83CE5ED240F50181919191B4
:101D4000A191B1915F01CE50DD4F88839983AA8321
:101D5000BB83C25FD240D601ED91FD916D01CA50A7
:101D6000DD4FF983E883C65FD240C451DD4FA881BF
:101D7000B981CC5ED240ED91FD91C451DD4FB98364
:101D8000A883CC5ED240C850DD4FF983E883C85F9A
:101D9000D240D201ED91FD912D01C650DD4FF98366
:101DA000E883CA5FD240F10181919191A191B191F3
:101DB0001F01C450DD4F88839983AA83BB83CC5F06
:101DC000D240D3016D917D918D919D913D019E01F8
:101DD00027513D4FAE014F5F5F4F0E94F2079E01BA
:101DE00027513D4FAE014F5F5F4FC450DD4F6881BB
:101DF00079818A819B81CC5FD2400E94F207AE013B
:101E000047515D4FBE016F5F7F4FC650DD4F8881E8
:101E10009981CA5FD2400E94DA07AE0147515D4FF7
:101E2000BE016F5F7F4FC850DD4F88819981C85FC9
:101E3000D2400E94DA07AE0147515D4FBE016F5F8D
:101E40007F4FCA50DD4F88819981C65FD2400E9482
:101E5000DA079E0127513D4FAE014F5F5F4FCE50D5
:101E6000DD4F688179818A819B81C25FD2400E9467
:101E7000F2079E0127513D4FAE014F5F5F4FC251A8
:101E8000DD4F688179818A819B81CE5ED2400E943C
:101E9000F2070815190509F042CF89E393E00E9483
:101EA00046044BEFBE016F5F7F4F89E393E00E94D2
:101EB000B40489E393E00E948E0762E070E088E05A
:101EC00090E00E941E08B1E0EB1AF10809F0A1CEE3
:101ED00089E393E00E945F0464EF71E089E393E09B
:101EE0000E949607882319F1AE0145515D4FBE014E
:101EF00064507F4F89E393E00E9447088823B9F03C
:101F0000C450DF4F8881CC5FD04087708130F9F4B6
:101F10006091470370914803CE0184509F4F0E9407
:101F2000E00061E070E087E090E00E941E0880E041
:101F300090E0892B09F418CE0E949B02882309F4B3
:101F400013CE0E94000010CE80E090E072CEC05010
:101F5000DF4F8881C050D140823049F762E070E0A5
:101F600087E090E00E941E080E94AB00853051F18E
:101F700090E0880F991FE0912B03F0912C03E80F5C
:101F8000F91F80819181C250DF4F9883CE5FD0408E
:101F9000C150DF4F8883CF5FD04089E393E00E9438
:101FA000460442E0BE0164507F4F89E393E00E9403
:101FB000B40489E393E00E948E0763E070E088E058
:101FC00090E0B3CF80E090E0DECF80912903909144
:101FD0002A03009711F00E94D81180912B03909151
:101FE0002C03009711F00E94D81180912D0390913D
:101FF0002E03009711F00C94D81108958F929F92A0
:10200000AF92BF92CF92DF92EF92FF92CF93DF9386
:10201000EC01688179818A819B8161157105810557
:10202000910521F464E279ED8BE597E02DE133EF42
:1020300041E050E00E94AB1049015A019B01AC0104
:10204000A7EAB1E40E94CA106B017C01ACEEB4EFC8
:10205000A50194010E94D810C60ED71EE81EF91ED5
:10206000F7FE06C081E0C81AD108E10880E8F80A46
:10207000C882D982EA82FB82C701B6019F77DF91CD
:10208000CF91FF90EF90DF90CF90BF90AF909F9057
:102090008F9008958F929F92AF92BF92CF92DF92CE
:1020A000EF92FF9260910401709105018091060109
:1020B00090910701611571058105910521F464E294
:1020C00079ED8BE597E02DE133EF41E050E00E94A0
:1020D000AB1049015A019B01AC01A7EAB1E40E948F
:1020E000CA106B017C01ACEEB4EFA50194010E9413
:1020F000D810C60ED71EE81EF91EF7FE06C081E0F6
:10210000C81AD108E10880E8F80AC0920401D09208
:102110000501E0920601F0920701C701B6019F7721
:10212000FF90EF90DF90CF90BF90AF909F908F90F7
:1021300008956093040170930501809306019093C4
:1021400007010895FB01DC0102C005900D9241508A
:102150005040D8F70895052E97FB1EF400940E9476
:10216000C21057FD07D00E94DD1007FC03D04EF4CB
:102170000C94C21050954095309521953F4F4F4F8C
:102180005F4F089590958095709561957F4F8F4F23
:102190009F4F08950E94FF10A59F900DB49F900D32
:1021A000A49F800D911D11240895B7FF0C94CA10AF
:1021B0000E94CA10821B930B0895A1E21A2EAA1B3B
:1021C000BB1BFD010DC0AA1FBB1FEE1FFF1FA217E7
:1021D000B307E407F50720F0A21BB30BE40BF50BE4
:1021E000661F771F881F991F1A9469F7609570956D
:1021F000809590959B01AC01BD01CF010895A29FF0
:10220000B001B39FC001A39F700D811D1124911DCA
:10221000B29F700D811D1124911D089597FB072E0B
:1022200016F4009407D077FD09D00E94221107FC14
:1022300005D03EF4909581959F4F089570956195D6
:102240007F4F0895AA1BBB1B51E107C0AA1FBB1FEC
:10225000A617B70710F0A61BB70B881F991F5A9532
:10226000A9F780959095BC01CD010895EE0FFF1F51
:102270000590F491E02D09940F931F93CF93DF9372
:102280008230910510F482E090E0E0915C04F091DE
:102290005D0430E020E0B0E0A0E0309799F4211533
:1022A000310509F44AC0281B390B24303105D8F513
:1022B0008A819B816115710589F1FB01938382837A
:1022C000FE0111C0408151810281138148175907D5
:1022D000E0F04817590799F4109761F012960C93A3
:1022E000129713961C933296CF01DF91CF911F91D5
:1022F0000F91089500935C0410935D04F4CF2115B1
:10230000310551F04217530738F0A901DB019A015A
:10231000BD01DF01F801C1CFEF01F9CF90935D045A
:1023200080935C04CDCFFE01E20FF31F8193919364
:102330002250310939832883D7CF20915A04309114
:102340005B04232B41F420910A0130910B0130935F
:102350005B0420935A042091080130910901211552
:10236000310541F42DB73EB740910C0150910D015C
:10237000241B350BE0915A04F0915B04E217F3073C
:10238000A0F42E1B3F0B2817390778F0AC014E5FE5
:102390005F4F2417350748F04E0F5F1F50935B04C3
:1023A00040935A04819391939FCFF0E0E0E09CCF5B
:1023B000CF93DF930097E9F0FC01329713821282EA
:1023C000A0915C04B0915D04ED0130E020E0109735
:1023D000A1F420813181820F931F20915A04309102
:1023E0005B042817390709F061C0F0935B04E093A0
:1023F0005A04DF91CF910895EA01CE17DF07E8F57F
:102400004A815B819E0141155105B1F7E901FB83CA
:10241000EA8349915991C40FD51FEC17FD0761F468
:10242000808191810296840F951FE90199838883A9
:10243000828193819B838A83F0E0E0E012968D9104
:102440009C9113970097B9F52D913C911197CD016F
:102450000296820F931F20915A0430915B04281733
:10246000390739F6309751F510925D0410925C04EB
:10247000B0935B04A0935A04BCCFD383C283408142
:102480005181840F951FC817D90761F44E5F5F4FC4
:1024900088819981480F591F518340838A819B818C
:1024A000938382832115310509F0B0CFF0935D0449
:1024B000E0935C049ECFFD01DC01C0CF1382128249
:1024C000D7CF81E090E0F8940C946F12FB01DC010F
:1024D00002C001900D9241505040D8F7089510E08D
:1024E000C8E6D0E004C0FE010E9436112196C9362C
:0824F000D107C9F7F894FFCFF2
:1024F800CC03CC030100000000005E04800017A597
:10250800564B1EA5564B28A5564B33A5564B3DA5F5
:10251800564B47A5564B50A5564B5BA5564B65A544
:10252800564B6FA5564B78A5564BA4705D40A470CA
:102538005D40A4705D40A4705D40A4705D40A470CF
:102548005D40A4705D40A4705D40A4705D40A470BF
:102558005D40A4705D402600D4FFD3FFDCFFF4FF8C
:1025680011002C003D00440053005F00E8FFF4FF19
:10257800050012001D0020001A00170027003E0069
:102588004D008C00940097009C0093008A008A00FC
:1025980089008D0083008400AE47E13F3D0AD73FA4
:1025A8003D0AD73F3D0AD73FEC51D83FEC51D83FC1
:1025B8009A99D93F48E1DA3F48E1DA3FF628DC3F0B
:1025C800A470DD3F3333B3BFA470BDBFA470BDBFDB
:1025D800F628BCBFA470BDBFF628BCBFF628BCBF98
:1025E800F628BCBF48E1BABF48E1BABF9A99B9BF5B
:1025F8000D0E131516191A1C232526292A2C3234D8
:10260800000000002E02B302CF017B020002DE01AF
:10261800F2010000000012070E070A074A09F60631
:1026280021071D071907D906C806AE0600000000D5
:102638008A0878044708B404CD03C9078E075F07E2
:102648009607DE0929045907560753075007490713
:102658005C074607430740073D07AF0239073507C0
:082668008B042F072B07270745
:00000001FF
