:100000000C9468000C94A5090C947E090C94900043
:100010000C9490000C9490000C9490000C94900020
:100020000C9490000C9490000C9490000C94CC09CB
:100030000C9490000C9490000C9490000C94900000
:100040000C9434090C9490000C9402090C94DC0874
:100050000C9490000C9490000C9490000C949000E0
:100060000C9490000C9490000000000023002600E7
:10007000290072740492740448940478C40C00003B
:100080000000240027002A000000000025002800AE
:100090002B00040404040404040402020202020209
:1000A000030303030303010204081020408001023C
:1000B00004081020010204081020000000080002BB
:1000C00001000003040700000000000000000E0B08
:1000D00011241FBECFEFD8E0DEBFCDBF11E0A0E0FE
:1000E000B1E0E4E8FBE102C005900D92A039B10750
:1000F000D9F723E0A0E9B1E001C01D92A037B20713
:10010000E1F710E0C8E6D0E004C02197FE010E94AC
:10011000AC0DC736D107C9F70E94740B0C94C00D03
:100120000C940000E82FF0E0EE0FFF1FE050FF4FAF
:1001300071836083813039F080916900836080939E
:100140006900E89A0895809169008C608093690045
:10015000E99A0895FC01538D448D252F30E0842FBA
:1001600090E0821B930B541710F0CF9608950197DF
:100170000895FC01918D828D981761F0A28DAE0FCC
:10018000BF2FB11D5D968C91928D9F5F9F73928F53
:1001900090E008958FEF9FEF0895FC01918D828D7F
:1001A000981731F0828DE80FF11D858D90E008954C
:1001B0008FEF9FEF0895FC01918D228D892F90E0A4
:1001C000805C9F4F821B91098F7399270895FC01D2
:1001D000A48DA80FB92FB11DA35ABF4F2C91848DA8
:1001E00090E001968F739927848FA689B7892C9305
:1001F000A089B1898C91837080648C93938D848D58
:10020000981306C00288F389E02D80818F7D80835A
:100210000895EF92FF920F931F93CF93DF93EC011A
:1002200081E0888F9B8D8C8D98131AC0E889F9899D
:10023000808185FF15C09FB7F894EE89FF896083A0
:10024000E889F98980818370806480839FBF81E021
:1002500090E0DF91CF911F910F91FF90EF90089563
:10026000F62E0B8D10E00F5F1F4F0F731127E02E3E
:100270008C8D8E110CC00FB607FCFACFE889F98976
:10028000808185FFF5CFCE010E94E700F1CFEB8D95
:10029000EC0FFD2FF11DE35AFF4FF0829FB7F8944A
:1002A0000B8FEA89FB8980818062CFCFCF93DF9368
:1002B000EC01888D8823B9F0AA89BB89E889F9897E
:1002C0008C9185FD03C0808186FD0DC00FB607FCB3
:1002D000F7CF8C9185FFF2CF808185FFEDCFCE01E6
:1002E0000E94E700E9CFDF91CF91089588EA91E07D
:1002F0000E94DB0021E0892B09F420E0822F089581
:1003000080E090E0892B29F00E94760181110C9405
:1003100000000895AF92BF92CF92DF92EF92FF92CA
:100320000F931F93CF93DF936C017B018B01040F1D
:10033000151FEB015E01AE18BF08C017D10759F0B9
:100340006991D601ED91FC910190F081E02DC601FB
:100350000995892B79F7C501DF91CF911F910F91F5
:10036000FF90EF90DF90CF90BF90AF9008958330D3
:1003700081F028F4813099F08230A9F00895873017
:10038000A9F08830C9F08430B1F4809180008F7D6D
:1003900003C0809180008F7780938000089584B59A
:1003A0008F7784BD089584B58F7DFBCF8091B00099
:1003B0008F778093B00008958091B0008F7DF9CF42
:1003C0001F93CF93DF93282F30E0F901E654FF4FBE
:1003D0008491F901EA55FF4FD491F901EE56FF4F90
:1003E000C491CC23A9F0162F81110E94B701EC2FE4
:1003F000F0E0EE0FFF1FE857FF4FA591B4918FB7C4
:10040000F894EC91111108C0D095DE23DC938FBFD6
:10041000DF91CF911F910895DE2BF8CFCF93DF931B
:1004200090E0FC01EA55FF4F24918E569F4FFC014E
:1004300084918823D1F090E0880F991FFC01E25845
:10044000FF4FA591B491FC01E857FF4FC591D4919E
:1004500061110EC09FB7F8948C91E22FE0958E2326
:100460008C932881E223E8839FBFDF91CF91089589
:100470008FB7F894EC91E22BEC938FBFF6CF3FB798
:10048000F8948091A0019091A101A091A201B09156
:10049000A30126B5A89B05C02F3F19F00196A11D09
:1004A000B11D3FBFBA2FA92F982F8827BC01CD01BE
:1004B000620F711D811D911D42E0660F771F881F1D
:1004C000991F4A95D1F708958F929F92AF92BF924C
:1004D000CF92DF92EF92FF926B017C010E943F026C
:1004E0004B015C01C114D104E104F104B9F00E9494
:1004F0003F02681979098A099B09683E73408105A2
:10050000910580F321E0C21AD108E108F10888EED4
:10051000880E83E0981EA11CB11CE4CFFF90EF90E1
:10052000DF90CF90BF90AF909F908F9008952FB79E
:10053000F89460919C0170919D0180919E01909131
:100540009F012FBF089508958BEF0895CF93DF93F8
:10055000FC01228133812230310569F0EC01678D85
:10056000858D0E94E00160E08C8D0E94E00182E0B8
:1005700090E09B838A83DF91CF910895FF920F9340
:100580001F93CF93DF93EC01162FF42E0FB7F8943F
:10059000898D9A8DDC01ED91FC910088F189E02D27
:1005A000099560E08B8D0E94E001898D9A8D612F05
:1005B0006068DC01ED91FC910190F081E02D0995DE
:1005C000182F898D9A8DDC01ED91FC910190F081BD
:1005D000E02D6F2D099561E08B8D0E94E001898DE2
:1005E0009A8DDC01ED91FC910288F389E02D09954B
:1005F0000FBF812FDF91CF911F910F91FF90089531
:100600000F931F93CF938C01C62F65317CF047E089
:100610006DE40E94BE02C3504BEF4C0F406869E08E
:10062000C801CF911F910F910C94BE0244E06DE47C
:100630000E94BE02F1CFCF93DF93EC0143E061E073
:100640000E94BE0240E460E4CE010E94BE0283E04C
:1006500090E09B838A83DF91CF910895CF93DF93BE
:10066000EC0145E061E00E94BE0240E060E4CE01A2
:100670000E94BE0284E090E09B838A83DF91CF9149
:100680000895CF93DF93FC0122813381233031051C
:1006900071F0EC0182819381049719F0CF010E94DF
:1006A0002E03C25EDE4F8881DF91CF91089580E0F6
:1006B000FBCFCF93DF93EC018A819B81059771F08B
:1006C00047E061E0CE010E94BE0240E860E4CE0156
:1006D0000E94BE0285E090E09B838A838A819B8191
:1006E0000597E1F38E89DF91CF910895CF93DF9342
:1006F000FC01228133812130310549F0EC0140E0D9
:1007000061E00E94BE0281E090E09B838A8381E0E9
:10071000DF91CF910895CF93DF93FC012281338144
:100720002230310549F0EC0141E061E00E94BE0257
:1007300082E090E09B838A83DF91CF910895BF92FE
:10074000CF92DF92EF92FF920F931F93CF93DF939D
:100750004C3F60F0E12C8E2DDF91CF911F910F91D6
:10076000FF90EF90DF90CF90BF900895142F072F48
:10077000F62EEC01E881F9810484F585E02D0995D8
:10078000CE010E948B03E881F9810288F389E02D74
:10079000CE010995E82E8823E9F240E06DE0CE0114
:1007A0000E94BE024A8560E0CE010E94BE024B85D7
:1007B00060E0CE010E94BE024C8560E0CE010E9446
:1007C000BE024D8560E0CE010E94BE02BFB6F89425
:1007D000898D9A8DDC01ED91FC910088F189E02DE5
:1007E000099560E08B8D0E94E001898D9A8DDC0176
:1007F000ED91FC910190F081E02D60E80995CF2CFE
:10080000D02E012F015068F0898D9A8DF6016191EB
:100810006F01DC01ED91FC910190F081E02D0995D3
:10082000F1CF61E08B8D0E94E001898D9A8DDC0112
:10083000ED91FC910288F389E02D0995BFBE44E05B
:10084000410F62E2CE010E94BE028A819B81039722
:1008500009F481CFCE010E941B037DCF0F931F931C
:10086000CF93DF93EC01162F0FB7F89460E08B8DD8
:100870000E94E001898D9A8DDC01ED91FC9101903F
:10088000F081E02D612F0995898D9A8DDC01ED9124
:10089000FC910190F081E02D60E00995182F61E056
:1008A0008B8D0E94E0010FBF812FDF91CF911F91AF
:1008B0000F910895CF92DF92EF92FF921F93CF9303
:1008C000DF93EC0162E10E942E04182F6CE1CE014F
:1008D0000E942E042A813B812430310529F582951E
:1008E00086958695837091E0892780FBEE24E0F859
:1008F000F12C812F807AE82AEF28B1F08889998934
:100900000196998B888B4FEF62E1CE010E94BE0267
:100910004FEF62E1CE01DF91CF911F91FF90EF90F9
:10092000DF90CF900C94BE028A819B81049711F4D2
:1009300016FD0FC08A819B81039711F413FDBFC080
:100940008A819B810597F9F612FFDDCF11701E8B0E
:10095000A1C063E1CE010E942E04F82E60E1CE0119
:100960000E942E04482F6DE0CE010E94BE02EFB619
:10097000F894898D9A8DDC01ED91FC910088F189C4
:10098000E02D099560E08B8D0E94E001898D9A8DA4
:10099000DC01ED91FC910190F081E02D60E0099582
:1009A0006E01BFE1CB0ED11C1F2D115070F0898D4F
:1009B0009A8DDC01ED91FC910190F081E02D60E0D9
:1009C0000995F60181936F01F0CF61E08B8D0E9454
:1009D000E001898D9A8DDC01ED91FC910288F3890B
:1009E000E02D0995EFBEFE8E4FEF62E1CE010E9431
:1009F000BE0269E1CE010E942E047E01B0EEEB1A28
:100A0000BEEFFB0A87FD8D5F85958595F701808395
:100A10006AE1CE010E942E0490E09F878E87D70165
:100A20002C918E859F8527FF39C0820F911D27FD50
:100A30009A959F878E87FE01E15EFE4F8081882315
:100A4000C9F18E859F858D5991099F878E878E8DDF
:100A5000FE01E25EFE4F8430C8F08F8D8E8388A148
:100A60008F8389A188878AA189878D81811107C099
:100A70009E818C81981719F08E818F3F39F48A8975
:100A80009B8901969B8B8A8B81E080838081882360
:100A900009F439CFCE010E948B0335CF24E0880FB3
:100AA000991F2A95E1F76FE070E00E94840D7F871F
:100AB0006E87C1CF8E859F85845A9109C6CF8C8958
:100AC0009D8901969D8B8C8BE5CF809199019091AA
:100AD0009A01009711F00C945A040895809197019F
:100AE00090919801009711F00C945A040895809108
:100AF000950190919601009711F00C945A04089575
:100B0000CF93DF93EC01898D9A8DDC01ED91FC91FF
:100B10000680F781E02D099561E08B8D0E940E0221
:100B200061E08B8D0E94E00164E670E080E090E07F
:100B30000E94640281E0DF91CF9108952FB7F8946D
:100B400091E0662339F092E0613021F082E08093F9
:100B5000930190E080919201892B80939201809182
:100B60009301811103C081E0809393012FBF089509
:100B700080919301882361F09FB7F89420919301AD
:100B800080919101213019F48DBB9FBF08958FBFD3
:100B90000895FC013085218580919301882381F09F
:100BA0009FB7F89480919301813069F48DB380935D
:100BB00091014DB380919201809584238DBB9FBF9D
:100BC0003CBD2DBD089590939101FACF9FB7F89445
:100BD00080919001882319F0815080939001809139
:100BE0009001811105C08CB58F7B8CBD1092930153
:100BF0009FBF08958CB58F778CBD08958CB58068A4
:100C00008CBD08956EBD00000DB407FEFDCF8EB5FE
:100C10000895FC01738362830895FC0177836683E2
:100C20000895FC0175836483089508950895FC0177
:100C3000848995890895FC01828993890895FC012E
:100C400080899189089580E00895FC01738362830F
:100C50000895FC01828193810895FC018685978522
:100C60000895FC0181850895FC0180850895FC01AB
:100C700087810895FC01868108954095FC012585B2
:100C80004223642B65870895FC0164870895FC0165
:100C900063870895FC0162870895FC0164830895C9
:100CA000FC01658308958F929F92AF92BF92CF927D
:100CB000DF92EF92FF92CF93DF93EC016B010E94E2
:100CC00097024B015C01F12CE12C0E9497026819FC
:100CD00079098A099B096C157D058E059F0580F4AD
:100CE0008A819B81039789F381E0DF91CF91FF9007
:100CF000EF90DF90CF90BF90AF909F908F9008952E
:100D000080E0F3CFFC012281338123303105D1F320
:100D100081E008958F929F92AF92BF92CF92DF921F
:100D2000EF92FF92CF93DF93EC016B010E94970249
:100D30004B015C01F12CE12C0E94970268197909A2
:100D40008A099B096C157D058E059F05A0F4E88135
:100D5000F9810280F381E02DCE010995882361F3AA
:100D6000DF91CF91FF90EF90DF90CF90BF90AF9049
:100D70009F908F90089580E0F3CFCF93DF93EC01A5
:100D8000E881F9810280F381E02DCE010995882365
:100D9000B9F3DF91CF91089581E00895EF92FF922A
:100DA0001F93CF93DF93182F7B01D0E0C0E061E069
:100DB000812F0E94E00164EF71E080E090E00E94EA
:100DC000640260E0812F0E94E00164EF71E080E046
:100DD00090E00E9464022196EC16FD0641F7DF9137
:100DE000CF911F91FF90EF9008950E94B20DCF9286
:100DF000DF92EF92FF920F931F93CF93DF93EC015B
:100E00007B018A01E881F9810280F381E02D099557
:100E1000D82E882329F1E114F104D1F00115110530
:100E2000B9F0CFB6F8948E8D8350990BF8012081DC
:100E3000281719061CF08E8D84508083F80140819C
:100E400050E0BE016D5D7F4FC7010E94B70DCFBE60
:100E50008FB7F894FE01E25EFE4F10821E8E8FBFA8
:100E60008D2DDF91CF911F910F91FF90EF90DF902B
:100E7000CF900895EF92FF920F931F93CF93DF933C
:100E800000D01F92CDB7DEB78C010E948005E82EFE
:100E900081110CC0E12C8E2D0F900F900F90DF91DF
:100EA000CF911F910F91FF90EF900895D8015C961C
:100EB0008C91823009F496C0FF24F394833051F76B
:100EC000F801818D928DDC01ED91FC910488F5890A
:100ED000E02D6F2D099540E861E0C8010E94BE0237
:100EE0006AE070E080E090E00E94640261E0C80186
:100EF0000E942E04803871F660E0F801848D0E9413
:100F00000E02D8015D968C915D978F3F59F48091C8
:100F10009401843008F0BECF91E0980F9093940133
:100F20005D968C93F801858DE82FF0E0EE0FFF1FA2
:100F3000EB56FE4F1183008367E775E0882349F085
:100F40006EE675E0813029F0823009F0A3CF65E6C6
:100F500075E08F2D0E94920040E06EE0C8010E9473
:100F6000BE0240E06FE0C8010E94BE02C8010E94BC
:100F70008B0343E050E062E770E0CE0101960E94EF
:100F8000180D49816DE1C8010E94BE024A816EE1DF
:100F9000C8010E94BE024B8166E2C8010E94BE02E7
:100FA00040E060E2C8010E94BE0248E061E2C80180
:100FB0000E94BE024CE666E0C8010E94BE0240E804
:100FC00067E0C8010E94BE0240E068E0C8010E94DC
:100FD000BE02F801E15EFE4F10826DE0C8010E9482
:100FE000000359CFF12C6CCF0F931F93CF93FC01CB
:100FF0008281938140E054E264EF70E08430910597
:10100000C1F040E052E16AE770E08330910589F079
:1010100040E059E06DE370E08230910551F040E42A
:1010200052E46FE070E0019721F440E854E86EE18B
:1010300070E0A481B58186819781009709F466C02C
:101040008130910509F45EC08230910509F45CC0DD
:10105000039709F05BC08CE000E012E12AE730E082
:1010600090E0401751076207730740F436952795C3
:10107000179507959F5F9630A1F797E021E0292704
:1010800030E5119709F430E72695282B232B20878C
:10109000909591709187CFB7F894809190018111CC
:1010A00027C0ECE9F0E08491E0EBF0E09491E82FC8
:1010B000F0E0EE0FFF1FE258FF4FA591B491EC91C5
:1010C000E92321F461E08AE00E94E00161E08AE026
:1010D0000E940E028CB580618CBD8CB580648CBD85
:1010E00061E08DE00E940E0261E08BE00E940E0242
:1010F000809190018F5F80939001CFBFCF911F911E
:101100000F91089584E0A8CF88E0A6CF80E0A4CF17
:101110008F929F92AF92BF92CF92DF92EF92FF9207
:10112000CF93DF93FC012789308D232BB9F1EC019C
:101130000E9497024B015C0189E0C82ED12CE12C62
:10114000F12CE881F9810488F589E02DCE0109951B
:10115000882321F10E949702AB01BC01481959096B
:101160006A097B098F89988DB0E0A0E08417950704
:10117000A607B707F8F00E94C00CA70196010E94CD
:10118000210D9B01AC012F5F3F4F4F4F5F4FA4E6F6
:10119000B0E00E94400D0E946402D3CF81E0DF9155
:1011A000CF91FF90EF90DF90CF90BF90AF909F9046
:1011B0008F90089580E0F3CF1F920F920FB60F9299
:1011C00011242F933F934F935F936F937F938F934C
:1011D0009F93AF93BF93EF93FF9388EA91E00E94B0
:1011E000E700FF91EF91BF91AF919F918F917F9118
:1011F0006F915F914F913F912F910F900FBE0F9084
:101200001F9018951F920F920FB60F9211242F93D3
:101210008F939F93EF93FF93E091B801F091B90101
:101220008081E091BE01F091BF0182FD1BC09081E1
:101230008091C1018F5F8F732091C201821741F0AD
:10124000E091C101F0E0E855FE4F958F8093C10118
:10125000FF91EF919F918F912F910F900FBE0F9063
:101260001F9018958081F4CF1F920F920FB60F92A6
:1012700011242F933F938F939F93AF93BF938091AC
:101280009C0190919D01A0919E01B0919F01309190
:101290009B0123E0230F2D3758F50196A11DB11DA9
:1012A00020939B0180939C0190939D01A0939E01AC
:1012B000B0939F018091A0019091A101A091A20102
:1012C000B091A3010196A11DB11D8093A00190933F
:1012D000A101A093A201B093A301BF91AF919F91EF
:1012E0008F913F912F910F900FBE0F901F901895E7
:1012F00026E8230F0296A11DB11DD2CF1F920F9297
:101300000FB60F9211242F933F934F935F936F93D8
:101310007F938F939F93AF93BF93EF93FF93E0914E
:101320000201F09103010995FF91EF91BF91AF91F7
:101330009F918F917F916F915F914F913F912F91ED
:101340000F900FBE0F901F9018951F920F920FB61F
:101350000F9211242F933F934F935F936F937F933B
:101360008F939F93AF93BF93EF93FF93E09100010F
:10137000F09101010995FF91EF91BF91AF919F917C
:101380008F917F916F915F914F913F912F910F902E
:101390000FBE0F901F9018951F920F920FB60F92CD
:1013A00011242F933F934F935F936F937F938F936A
:1013B0009F93AF93BF93CF93DF93EF93FF9380916E
:1013C000020090910300049709F0DEC020911B00F9
:1013D00030E0F901E654FF4F8491F901EA55FF4FDF
:1013E000D491F901EE56FF4FC491CC2379F08111CD
:1013F0000E94B701EC2FF0E0EE0FFF1FE859FF4FFE
:10140000A591B491EC91ED2381E009F480E0817025
:1014100020911E00982F9227821719F083B18F5FB9
:1014200083B982B18917F1F184B12DE1803508F4D7
:101430002BE084B1820F84B992B984B1803A08F468
:101440006EC086B197B19695879597B986B983B1E5
:10145000853028F086B197B1986097B986B984B184
:10146000805A84B913B885B1882309F482C088B141
:101470008F5F88B98C3008F452C086B197B1982F2D
:101480009F73892F86958695887028E0280F2817E6
:1014900069F0E82FF0E0E85FFE4F3081931739F0F4
:1014A0008F5FF5CF84B18C5E84B9C7CF80E090E1C7
:1014B000899F9001112486B197B136E09695879562
:1014C0003A95E1F7482F959587959595879588707A
:1014D00098E0980F981749F0E82FF0E0E85FFE4F8A
:1014E0005081451719F08F5FF5CF80E0822B9091E6
:1014F0006D00911127C080936C0090916C00973023
:1015000020F090916C009434E8F015B880911000B0
:101510009091110001969093110080931000FF911B
:10152000EF91DF91CF91BF91AF919F918F917F917B
:101530006F915F914F913F912F910F900FBE0F9040
:101540001F901895E0916D0091E09E0F90936D00B3
:10155000F0E081A790916D0080916C00981738F0B1
:1015600015B881E080B990E080E00E94A60218B82A
:10157000D6CF86B197B188339B4089F681E085B993
:1015800018B810926D00CBCF8091020090910300AB
:10159000039729F68091700091E0980F9093700066
:1015A000811113C0E0916E008091FF00E817A8F050
:1015B00090E080E00E94A6028091140090911500B6
:1015C00001969093150080931400809170008830EC
:1015D00008F4A5CF10927000A2CFF0E0EF58FF4FB3
:1015E000608170E080916F0091E0980F90936F00A0
:1015F00002C0759567958A95E2F7617080911C002D
:101600000E94E00180916F008630F8F210926F0026
:1016100080916E008F5F80936E00D7CFE8EAF1E093
:101620001382128288EE93E0A0E0B0E08483958379
:10163000A683B7838CE191E09183808385EC90E071
:101640009587848784EC90E09787868780EC90E08C
:10165000918B808B81EC90E0938B828B82EC90E07D
:10166000958B848B86EC90E0978B868B118E128EF7
:10167000138E148EA5E4B2E013961C921E9212975C
:1016800015961C921E92149717961C921E921697EE
:101690008EE291E011969C938E9380E518968C9340
:1016A000189719961C921997EFE4F2E013821282B0
:1016B0008FEF84838287838714861586118A108A28
:1016C000138A128A158A148A108E178AB28FA18FF4
:1016D0009AE0938F28E431E03183208310926D03E8
:1016E00092E0948F858F0895CF93DF93CDB7DEB7C7
:1016F000CC5FD1090FB6F894DEBF0FBECDBF789492
:1017000084B5826084BD84B5816084BD85B5826006
:1017100085BD85B5816085BD80916E0081608093B7
:101720006E00109281008091810082608093810020
:101730008091810081608093810080918000816030
:10174000809380008091B10084608093B10080918B
:10175000B00081608093B00080917A0084608093B3
:101760007A0080917A00826080937A0080917A007A
:10177000816080937A0080917A00806880937A00FB
:101780001092C10061E087E00E940E0261E088E0F3
:101790000E940E028FE492E00E943A07811116C067
:1017A00062E070E087E090E00E94CE064BE050E0FF
:1017B00060E871E088EA91E00E948A0142E050E02E
:1017C0006CE871E088EA91E00E948A0144EE66E0EC
:1017D0008FE492E00E94BE0240EC67E08FE492E06A
:1017E0000E94BE0240E068E08FE492E00E94BE02E8
:1017F00081E080936E0367E18FE492E00E94000332
:1018000062E070E088E090E00E94CE068BEFF82E58
:1018100000E010E0C450DF4FF882CC5FD0408091F0
:10182000510290915202049721F08FE492E00E94BD
:101830002E0360E67AEE8FE492E00E948A06882307
:1018400009F446C061E070E088E090E00E94CE06B6
:10185000AE0144505F4FBE016F5F7F4F8FE492E057
:101860000E94F7068823A1F18091A6019091A7011B
:1018700001969093A7018093A60161E070E087E054
:1018800090E00E94CE0661E070E088E090E00E9467
:10189000CE068091510290915202039721F08FE47D
:1018A00092E00E941B0342E0BE016F5F7F4F8FE416
:1018B00092E00E949F038FE492E00E948206809152
:1018C000A4019091A50101969093A5018093A40194
:1018D0000115110509F49ECF0E947601882309F4B1
:1018E00099CF0E94000096CF8F929F92AF92BF92A5
:1018F000CF92DF92EF92FF92CF93DF93EC0168815A
:1019000079818A819B81611571058105910521F499
:1019100064E279ED8BE597E02DE133EF41E050E0B3
:101920000E94210D49015A019B01AC01A7EAB1E4D3
:101930000E94400D6B017C01ACEEB4EFA501940157
:101940000E944E0DC60ED71EE81EF91EF7FE06C0F9
:1019500081E0C81AD108E10880E8F80AC882D98273
:10196000EA82FB82C701B6019F77DF91CF91FF909A
:10197000EF90DF90CF90BF90AF909F908F900895A1
:101980008F929F92AF92BF92CF92DF92EF92FF928F
:101990006091040170910501809106019091070109
:1019A000611571058105910521F464E279ED8BE5FE
:1019B00097E02DE133EF41E050E00E94210D490115
:1019C0005A019B01AC01A7EAB1E40E94400D6B01F2
:1019D0007C01ACEEB4EFA50194010E944E0DC60E41
:1019E000D71EE81EF91EF7FE06C081E0C81AD1080E
:1019F000E10880E8F80AC0920401D0920501E09263
:101A00000601F0920701C701B6019F77FF90EF90A2
:101A1000DF90CF90BF90AF909F908F90089560938C
:101A200004017093050180930601909307010895C6
:101A3000FB01DC0102C005900D9241505040D8F7E7
:101A40000895052E97FB1EF400940E94380D57FD53
:101A500007D00E94530D07FC03D04EF40C94380DB0
:101A600050954095309521953F4F4F4F5F4F0895CA
:101A700090958095709561957F4F8F4F9F4F0895FA
:101A80000E94750DA59F900DB49F900DA49F800D91
:101A9000911D11240895B7FF0C94400D0E94400D34
:101AA000821B930B0895A1E21A2EAA1BBB1BFD01FA
:101AB0000DC0AA1FBB1FEE1FFF1FA217B307E4072D
:101AC000F50720F0A21BB30BE40BF50B661F771F85
:101AD000881F991F1A9469F7609570958095909565
:101AE0009B01AC01BD01CF010895A29FB001B39F3E
:101AF000C001A39F700D811D1124911DB29F700D17
:101B0000811D1124911D089597FB072E16F4009452
:101B100007D077FD09D00E94980D07FC05D03EF450
:101B2000909581959F4F0895709561957F4F089589
:101B3000AA1BBB1B51E107C0AA1FBB1FA617B707F3
:101B400010F0A61BB70B881F991F5A95A9F780950F
:101B50009095BC01CD010895EE0FFF1F0590F49103
:101B6000E02D099481E090E0F8940C94C00DFB0105
:101B7000DC0102C001900D9241505040D8F7089509
:041B8000F894FFCF07
:101B8400A302A302010000000D0E131516191A1C5E
:101B9400232526292A2C32340000000009018A0159
:101BA400AA005601DB00B900CD00000000000206C7
:101BB400FE05FA05F407E60511060D060906C90532
:101BC400B8059E05000000003A074103F7069F038D
:101BD400A402BD06820653068A06880859034D06E8
:101BE4004A06470644063D0650063A0637063406BA
:101BF40031062D062906250676031F061B06170641
:101C0400696E6974206661696C6564000D0A000080
:107E0000112484B714BE81FFF0D085E080938100F7
:107E100082E08093C00088E18093C10086E0809377
:107E2000C20080E18093C4008EE0C9D0259A86E02C
:107E300020E33CEF91E0309385002093840096BBD3
:107E4000B09BFECF1D9AA8958150A9F7CC24DD24C4
:107E500088248394B5E0AB2EA1E19A2EF3E0BF2EE7
:107E6000A2D0813461F49FD0082FAFD0023811F036
:107E7000013811F484E001C083E08DD089C08234E0
:107E800011F484E103C0853419F485E0A6D080C0E4
:107E9000853579F488D0E82EFF2485D0082F10E0AE
:107EA000102F00270E291F29000F111F8ED06801E7
:107EB0006FC0863521F484E090D080E0DECF843638
:107EC00009F040C070D06FD0082F6DD080E0C81688
:107ED00080E7D80618F4F601B7BEE895C0E0D1E017
:107EE00062D089930C17E1F7F0E0CF16F0E7DF06D8
:107EF00018F0F601B7BEE89568D007B600FCFDCFD4
:107F0000A601A0E0B1E02C9130E011968C91119780
:107F100090E0982F8827822B932B1296FA010C0160
:107F200087BEE89511244E5F5F4FF1E0A038BF0790
:107F300051F7F601A7BEE89507B600FCFDCF97BE46
:107F4000E89526C08437B1F42ED02DD0F82E2BD052
:107F50003CD0F601EF2C8F010F5F1F4F84911BD097
:107F6000EA94F801C1F70894C11CD11CFA94CF0C13
:107F7000D11C0EC0853739F428D08EE10CD085E9AC
:107F80000AD08FE07ACF813511F488E018D01DD067
:107F900080E101D065CF982F8091C00085FFFCCF94
:107FA0009093C60008958091C00087FFFCCF809118
:107FB000C00084FD01C0A8958091C6000895E0E648
:107FC000F0E098E1908380830895EDDF803219F02E
:107FD00088E0F5DFFFCF84E1DECF1F93182FE3DFCA
:107FE0001150E9F7F2DF1F91089580E0E8DFEE27F6
:047FF000FF270994CA
:027FFE00040479
:0400000300007E007B
:00000001FF
