:100000000C9469000C948C090C9465090C94910073
:100010000C9491000C9491000C9491000C9491001C
:100020000C9491000C9491000C9491000C94B309E1
:100030000C9491000C9491000C9491000C949100FC
:100040000C941B090C9491000C94E9080C94C308BF
:100050000C9491000C9491000C9491000C949100DC
:100060000C9491000C9491000000000023002600E5
:10007000290072740492740448940478C40C00003B
:100080000000240027002A000000000025002800AE
:100090002B00040404040404040402020202020209
:1000A000030303030303010204081020408001023C
:1000B00004081020010204081020000000080002BB
:1000C0000100000304070000000000000000F50A22
:1000D000AC0C11241FBECFEFD8E0DEBFCDBF11E0C6
:1000E000A0E0B1E0E6E8FEE102C005900D92A6387E
:1000F000B107D9F723E0A6E8B1E001C01D92AC3604
:10010000B207E1F710E0C8E6D0E004C02197FE0195
:100110000E94FD0DC736D107C9F70E94BC0B0C9495
:10012000360F0C940000E82FF0E0EE0FFF1FE050B8
:10013000FF4F71836083813039F080916900836063
:1001400080936900E89A0895809169008C6080939B
:100150006900E99A0895FC01538D448D252F30E004
:10016000842F90E0821B930B541710F0CF960895C4
:1001700001970895FC01918D828D981761F0A28DF1
:10018000AE0FBF2FB11D5D968C91928D9F5F9F73B7
:10019000928F90E008958FEF9FEF0895FC01918D6D
:1001A000828D981731F0828DE80FF11D858D90E0DA
:1001B00008958FEF9FEF0895FC01918D228D892F77
:1001C00090E0805C9F4F821B91098F73992708955F
:1001D000FC01A48DA80FB92FB11DA35ABF4F2C91BC
:1001E000848D90E001968F739927848FA689B789B3
:1001F0002C93A089B1898C91837080648C93938DAA
:10020000848D981306C00288F389E02D80818F7D4C
:1002100080830895EF92FF920F931F93CF93DF9304
:10022000EC0181E0888F9B8D8C8D98131AC0E88932
:10023000F989808185FF15C09FB7F894EE89FF8901
:100240006083E889F98980818370806480839FBF9F
:1002500081E090E0DF91CF911F910F91FF90EF909F
:100260000895F62E0B8D10E00F5F1F4F0F731127AF
:10027000E02E8C8D8E110CC00FB607FCFACFE889EA
:10028000F989808185FFF5CFCE010E94E800F1CF8A
:10029000EB8DEC0FFD2FF11DE35AFF4FF0829FB75E
:1002A000F8940B8FEA89FB8980818062CFCFCF934E
:1002B000DF93EC01888D8823B9F0AA89BB89E8898E
:1002C000F9898C9185FD03C0808186FD0DC00FB634
:1002D00007FCF7CF8C9185FFF2CF808185FFEDCFB2
:1002E000CE010E94E800E9CFDF91CF9108958AE91D
:1002F00091E00E94DC0021E0892B09F420E0822FAC
:10030000089580E090E0892B29F00E947701811107
:100310000C9400000895AF92BF92CF92DF92EF92BB
:10032000FF920F931F93CF93DF936C017B018B019F
:10033000040F151FEB015E01AE18BF08C017D107EF
:1003400059F06991D601ED91FC910190F081E02D79
:10035000C6010995892B79F7C501DF91CF911F91CE
:100360000F91FF90EF90DF90CF90BF90AF900895E6
:10037000833081F028F4813099F08230A9F008951B
:100380008730A9F08830C9F08430B1F480918000C2
:100390008F7D03C0809180008F77809380000895C7
:1003A00084B58F7784BD089584B58F7DFBCF809110
:1003B000B0008F778093B00008958091B0008F7D5A
:1003C000F9CF1F93CF93DF93282F30E0F901E65444
:1003D000FF4F8491F901EA55FF4FD491F901EE5690
:1003E000FF4FC491CC23A9F0162F81110E94B801B0
:1003F000EC2FF0E0EE0FFF1FE857FF4FA591B491EF
:100400008FB7F894EC91111108C0D095DE23DC93DE
:100410008FBFDF91CF911F910895DE2BF8CFCF933F
:10042000DF9390E0FC01EA55FF4F24918E569F4FD9
:10043000FC0184918823D1F090E0880F991FFC0182
:10044000E258FF4FA591B491FC01E857FF4FC591C9
:10045000D49161110EC09FB7F8948C91E22FE09572
:100460008E238C932881E223E8839FBFDF91CF9175
:1004700008958FB7F894EC91E22BEC938FBFF6CFF1
:100480003FB7F8948091960190919701A0919801BF
:10049000B091990126B5A89B05C02F3F19F0019690
:1004A000A11DB11D3FBFBA2FA92F982F8827BC01CE
:1004B000CD01620F711D811D911D42E0660F771FF6
:1004C000881F991F4A95D1F708958F929F92AF92F6
:1004D000BF92CF92DF92EF92FF926B017C010E945C
:1004E00040024B015C01C114D104E104F104B9F0F4
:1004F0000E944002681979098A099B09683E734085
:100500008105910580F321E0C21AD108E108F108C4
:1005100088EE880E83E0981EA11CB11CE4CFFF90EA
:10052000EF90DF90CF90BF90AF909F908F90089505
:10053000CF93C82F61E00E94E10164EF71E080E099
:1005400090E00E94650260E08C2F0E94E10164EF60
:1005500071E080E090E00E94650261E08C2F0E94D3
:10056000E10164EF71E080E090E00E94650260E0EC
:100570008C2F0E94E10164EF71E080E090E0CF9168
:100580000C9465022FB7F8946091920170919301D9
:1005900080919401909195012FBF089508958BEF5C
:1005A0000895CF93DF93FC012281338122303105FE
:1005B00069F0EC01678D858D0E94E10160E08C8D12
:1005C0000E94E10182E090E09B838A83DF91CF91DA
:1005D0000895FF920F931F93CF93DF93EC01162F93
:1005E000F42E0FB7F894898D9A8DDC01ED91FC9172
:1005F0000088F189E02D099560E08B8D0E94E10172
:10060000898D9A8D612F6068DC01ED91FC910190DC
:10061000F081E02D0995182F898D9A8DDC01ED91DF
:10062000FC910190F081E02D6F2D099561E08B8D9B
:100630000E94E101898D9A8DDC01ED91FC91028887
:10064000F389E02D09950FBF812FDF91CF911F9185
:100650000F91FF900895CF93DF93EC0143E061E0A9
:100660000E94E90240E460E4CE010E94E90283E0D6
:1006700090E09B838A83DF91CF910895CF93DF939E
:10068000EC018A819B81059771F047E061E0CE0122
:100690000E94E90240E860E4CE010E94E90285E0A0
:1006A00090E09B838A838A819B810597E1F38E8901
:1006B000DF91CF910895CF93DF93FC0122813381A5
:1006C0002130310549F0EC0140E061E00E94E9028F
:1006D00081E090E09B838A8381E0DF91CF91089550
:1006E000CF93DF93FC01228133812230310549F021
:1006F000EC0141E061E00E94E90282E090E09B832E
:100700008A83DF91CF910895BF92CF92DF92EF92CB
:10071000FF920F931F93CF93DF934C3F60F0E12C38
:100720008E2DDF91CF911F910F91FF90EF90DF9071
:10073000CF90BF900895142F072FF62EEC01E8817B
:10074000F9810484F585E02D0995CE010E9470039E
:10075000E881F9810288F389E02DCE010995E82E20
:100760008823E9F240E06DE0CE010E94E9024A856B
:1007700060E0CE010E94E9024B8560E0CE010E945C
:10078000E9024C8560E0CE010E94E9024D8560E0FF
:10079000CE010E94E902BFB6F894898D9A8DDC01E2
:1007A000ED91FC910088F189E02D099560E08B8D39
:1007B0000E94E101898D9A8DDC01ED91FC910190FF
:1007C000F081E02D60E80995CF2CD02E012F01504B
:1007D00068F0898D9A8DF60161916F01DC01ED91D0
:1007E000FC910190F081E02D0995F1CF61E08B8DB6
:1007F0000E94E101898D9A8DDC01ED91FC910288C6
:10080000F389E02D0995BFBE44E0410F62E2CE01BD
:100810000E94E9028A819B81039709F481CFCE016E
:100820000E942B037DCFCF93DF93FC012281338184
:1008300023303105C9F0EC0182819381049771F076
:1008400045E061E0CF010E94E90240E060E4CE01B2
:100850000E94E90284E090E09B838A83C25EDE4FBF
:100860008881DF91CF91089580E0FBCF0F931F9394
:10087000CF93DF93EC01162F0FB7F89460E08B8DC8
:100880000E94E101898D9A8DDC01ED91FC9101902E
:10089000F081E02D612F0995898D9A8DDC01ED9114
:1008A000FC910190F081E02D60E00995182F61E046
:1008B0008B8D0E94E1010FBF812FDF91CF911F919E
:1008C0000F910895CF92DF92EF92FF921F93CF93F3
:1008D000DF93EC0162E10E943604182F6CE1CE0137
:1008E0000E9436042A813B812430310529F5829506
:1008F00086958695837091E0892780FBEE24E0F849
:10090000F12C812F807AE82AEF28B1F08889998923
:100910000196998B888B4FEF62E1CE010E94E9022C
:100920004FEF62E1CE01DF91CF911F91FF90EF90E9
:10093000DF90CF900C94E9028A819B81049711F497
:1009400016FD0FC08A819B81039711F413FDBFC070
:100950008A819B810597F9F612FFDDCF11701E8BFE
:10096000A1C063E1CE010E943604F82E60E1CE0101
:100970000E943604482F6DE0CE010E94E902EFB6D6
:10098000F894898D9A8DDC01ED91FC910088F189B4
:10099000E02D099560E08B8D0E94E101898D9A8D93
:1009A000DC01ED91FC910190F081E02D60E0099572
:1009B0006E01BFE1CB0ED11C1F2D115070F0898D3F
:1009C0009A8DDC01ED91FC910190F081E02D60E0C9
:1009D0000995F60181936F01F0CF61E08B8D0E9444
:1009E000E101898D9A8DDC01ED91FC910288F389FA
:1009F000E02D0995EFBEFE8E4FEF62E1CE010E9421
:100A0000E90269E1CE010E9436047E01B0EEEB1AE4
:100A1000BEEFFB0A87FD8D5F85958595F701808385
:100A20006AE1CE010E94360490E09F878E87D7014D
:100A30002C918E859F8527FF39C0820F911D27FD40
:100A40009A959F878E87FE01E15EFE4F8081882305
:100A5000C9F18E859F858D5991099F878E878E8DCF
:100A6000FE01E25EFE4F8430C8F08F8D8E8388A138
:100A70008F8389A188878AA189878D81811107C089
:100A80009E818C81981719F08E818F3F39F48A8965
:100A90009B8901969B8B8A8B81E080838081882350
:100AA00009F439CFCE010E94700335CF24E0880FBE
:100AB000991F2A95E1F76FE070E00E94D50D7F87BE
:100AC0006E87C1CF8E859F85845A9109C6CF8C8948
:100AD0009D8901969D8B8C8BE5CF80918F019091A4
:100AE0009001009711F00C946204089580918D019B
:100AF00090918E01009711F00C94620408958091FA
:100B00008B0190918C01009711F00C946204089570
:100B1000CF93DF93EC01898D9A8DDC01ED91FC91EF
:100B20000680F781E02D099561E08B8D0E940F0210
:100B300061E08B8D0E94E10164E670E080E090E06E
:100B40000E94650281E0DF91CF9108952FB7F8945C
:100B500091E0662339F092E0613021F082E08093E9
:100B6000890190E080918801892B80938801809190
:100B70008901811103C081E0809389012FBF08950D
:100B800080918901882361F09FB7F89420918901B1
:100B900080918701213019F48DBB9FBF08958FBFCD
:100BA0000895FC013085218580918901882381F099
:100BB0009FB7F89480918901813069F48DB3809357
:100BC00087014DB380918801809584238DBB9FBFA1
:100BD0003CBD2DBD089590938701FACF9FB7F8943F
:100BE00080918601882319F081508093860180913D
:100BF0008601811105C08CB58F7B8CBD1092890157
:100C00009FBF08958CB58F778CBD08958CB5806893
:100C10008CBD08956EBD00000DB407FEFDCF8EB5EE
:100C20000895FC01738362830895FC0177836683D2
:100C30000895FC0175836483089508950895FC0167
:100C4000848995890895FC01828993890895FC011E
:100C500080899189089580E00895FC0173836283FF
:100C60000895FC01828193810895FC018685978512
:100C70000895FC0181850895FC0180850895FC019B
:100C800087810895FC01868108954095FC012585A2
:100C90004223642B65870895FC0164870895FC0155
:100CA00063870895FC0162870895FC0164830895B9
:100CB000FC01658308958F929F92AF92BF92CF926D
:100CC000DF92EF92FF92CF93DF93EC016B010E94D2
:100CD000C2024B015C01F12CE12C0E94C202681996
:100CE00079098A099B096C157D058E059F0580F49D
:100CF0008A819B81039789F381E0DF91CF91FF90F7
:100D0000EF90DF90CF90BF90AF909F908F9008951D
:100D100080E0F3CFFC012281338123303105D1F310
:100D200081E008958F929F92AF92BF92CF92DF920F
:100D3000EF92FF92CF93DF93EC016B010E94C2020E
:100D40004B015C01F12CE12C0E94C2026819790967
:100D50008A099B096C157D058E059F05A0F4E88125
:100D6000F9810280F381E02DCE010995882361F39A
:100D7000DF91CF91FF90EF90DF90CF90BF90AF9039
:100D80009F908F90089580E0F3CFCF93DF93EC0195
:100D9000E881F9810280F381E02DCE010995882355
:100DA000B9F3DF91CF91089581E008950E94280F53
:100DB000CF92DF92EF92FF920F931F93CF93DF9327
:100DC000EC017B018A01E881F9810280F381E02D49
:100DD0000995D82E882329F1E114F104D1F00115E9
:100DE0001105B9F0CFB6F8948E8D8350990BF801A8
:100DF0002081281719061CF08E8D84508083F801FD
:100E0000408150E0BE016D5D7F4FC7010E942D0FF4
:100E1000CFBE8FB7F894FE01E25EFE4F10821E8EA9
:100E20008FBF8D2DDF91CF911F910F91FF90EF908C
:100E3000DF90CF900895EF92FF920F931F93CF937F
:100E4000DF9300D01F92CDB7DEB78C010E948805DA
:100E5000E82E81110CC0E12C8E2D0F900F900F9079
:100E6000DF91CF911F910F91FF90EF900895D801DE
:100E70005C968C91823009F49CC0FF24F3948330FB
:100E800051F7F801818D928DDC01ED91FC91048880
:100E9000F589E02D6F2D099540E861E0C8010E94B9
:100EA000E9026AE070E080E090E00E94650261E0A3
:100EB000C8010E943604803871F660E0F801848D24
:100EC0000E940F02D8015D968C915D978F3F59F477
:100ED00080918A01843008F0BECF91E0980F909302
:100EE0008A015D968C93F801858DE82FF0E0EE0F76
:100EF000FF1FE557FE4F118300836FE775E08823DE
:100F000049F066E775E0813029F0823009F0A3CF1F
:100F10006DE675E08F2D0E94930040E06EE0C80101
:100F20000E94E90240E06FE0C8010E94E902C801A6
:100F30000E94700343E050E062E770E0CE0101964A
:100F40000E94690D49816DE1C8010E94E9024A8150
:100F50006EE1C8010E94E9024B8166E2C8010E946D
:100F6000E90240E060E2C8010E94E90248E061E273
:100F7000C8010E94E9024CE666E0C8010E94E9024D
:100F800040E867E0C8010E94E90240E068E0C8016B
:100F90000E94E902F801E15EFE4F108244E06DE438
:100FA000C8010E94E90248E869E0C8010E94E9021C
:100FB00053CFF12C66CF0F931F93CF93FC01828107
:100FC000938140E054E264EF70E084309105C1F019
:100FD00040E052E16AE770E08330910589F040E03B
:100FE00059E06DE370E08230910551F040E452E445
:100FF0006FE070E0019721F440E854E86EE170E0A2
:10100000A481B58186819781009709F466C08130FB
:10101000910509F45EC08230910509F45CC0039724
:1010200009F05BC08CE000E012E12AE730E090E0DC
:10103000401751076207730740F4369527951795B7
:1010400007959F5F9630A1F797E021E0292730E5CB
:10105000119709F430E72695282B232B20879095AC
:1010600091709187CFB7F89480918601811127C044
:10107000ECE9F0E08491E0EBF0E09491E82FF0E00F
:10108000EE0FFF1FE258FF4FA591B491EC91E923B9
:1010900021F461E08AE00E94E10161E08AE00E94BF
:1010A0000F028CB580618CBD8CB580648CBD61E015
:1010B0008DE00E940F0261E08BE00E940F028091A0
:1010C00086018F5F80938601CFBFCF911F910F91D3
:1010D000089584E0A8CF88E0A6CF80E0A4CF8F92C7
:1010E0009F92AF92BF92CF92DF92EF92FF92CF93F7
:1010F000DF93FC012789308D232BB9F1EC010E948D
:10110000C2024B015C0189E0C82ED12CE12CF12CEC
:10111000E881F9810488F589E02DCE0109958823BD
:1011200021F10E94C202AB01BC01481959096A09A8
:101130007B098F89988DB0E0A0E084179507A607FA
:10114000B707F8F00E94110DA70196010E94720DD9
:101150009B01AC012F5F3F4F4F4F5F4FA4E6B0E0C4
:101160000E94910D0E946502D3CF81E0DF91CF9163
:10117000FF90EF90DF90CF90BF90AF909F908F90B7
:10118000089580E0F3CF1F920F920FB60F921124B3
:101190002F933F934F935F936F937F938F939F937F
:1011A000AF93BF93EF93FF938AE991E00E94E80029
:1011B000FF91EF91BF91AF919F918F917F916F912F
:1011C0005F914F913F912F910F900FBE0F901F9005
:1011D00018951F920F920FB60F9211242F938F9391
:1011E0009F93EF93FF93E091AA01F091AB0180816F
:1011F000E091B001F091B10182FD1BC0908180911E
:10120000B3018F5F8F732091B401821741F0E09199
:10121000B301F0E0E656FE4F958F8093B301FF9146
:10122000EF919F918F912F910F900FBE0F901F9074
:1012300018958081F4CF1F920F920FB60F92112450
:101240002F933F938F939F93AF93BF93809192017E
:1012500090919301A0919401B091950130919101E9
:1012600023E0230F2D3758F50196A11DB11D2093C2
:1012700091018093920190939301A0939401B09374
:1012800095018091960190919701A0919801B0915C
:1012900099010196A11DB11D80939601909397012C
:1012A000A0939801B0939901BF91AF919F918F91B5
:1012B0003F912F910F900FBE0F901F90189526E829
:1012C000230F0296A11DB11DD2CF1F920F920FB610
:1012D0000F9211242F933F934F935F936F937F93BC
:1012E0008F939F93AF93BF93EF93FF93E09102018E
:1012F000F09103010995FF91EF91BF91AF919F91FB
:101300008F917F916F915F914F913F912F910F90AE
:101310000FBE0F901F9018951F920F920FB60F924D
:1013200011242F933F934F935F936F937F938F93EA
:101330009F93AF93BF93EF93FF93E0910001F091E0
:1013400001010995FF91EF91BF91AF919F918F910D
:101350007F916F915F914F913F912F910F900FBEB1
:101360000F901F9018951F920F920FB60F92112495
:101370002F933F934F935F936F937F938F939F939D
:10138000AF93BF93CF93DF93EF93FF9380910200CE
:1013900090910300049709F0DEC020911B0030E01B
:1013A000F901E654FF4F8491F901EA55FF4FD491BA
:1013B000F901EE56FF4FC491CC2379F081110E94C0
:1013C000B801EC2FF0E0EE0FFF1FE859FF4FA59199
:1013D000B491EC91ED2381E009F480E081702091DB
:1013E0001E00982F9227821719F083B18F5F83B95F
:1013F00082B18917F1F184B12DE1803508F42BE039
:1014000084B1820F84B992B984B1803A08F46EC075
:1014100086B197B19695879597B986B983B185308E
:1014200028F086B197B1986097B986B984B1805A8F
:1014300084B913B885B1882309F482C088B18F5F5D
:1014400088B98C3008F452C086B197B1982F9F7339
:10145000892F86958695887028E0280F281769F0CF
:10146000E82FF0E0E25FFE4F3081931739F08F5F95
:10147000F5CF84B18C5E84B9C7CF80E090E1899FBD
:101480009001112486B197B136E0969587953A95EB
:10149000E1F7482F9595879595958795887098E001
:1014A000980F981749F0E82FF0E0E25FFE4F508167
:1014B000451719F08F5FF5CF80E0822B90916D007A
:1014C000911127C080936C0090916C00973020F0B0
:1014D00090916C009434E8F015B8809110009091D0
:1014E000110001969093110080931000FF91EF91ED
:1014F000DF91CF91BF91AF919F918F917F916F912C
:101500005F914F913F912F910F900FBE0F901F90C1
:101510001895E0916D0091E09E0F90936D00F0E0C2
:1015200081A790916D0080916C00981738F015B8E4
:1015300081E080B990E080E00E94D10218B8D6CF57
:1015400086B197B188339B4089F681E085B918B898
:1015500010926D00CBCF8091020090910300039711
:1015600029F68091700091E0980F9093700081119E
:1015700013C0E0916E008091FF00E817A8F090E0A2
:1015800080E00E94D1028091140090911500019694
:10159000909315008093140080917000883008F4B7
:1015A000A5CF10927000A2CFF0E0EF58FF4F6081FE
:1015B00070E080916F0091E0980F90936F0002C0EF
:1015C000759567958A95E2F7617080911C000E947D
:1015D000E10180916F008630F8F210926F008091E7
:1015E0006E008F5F80936E00D7CF10929D01109296
:1015F0009C0188EE93E0A0E0B0E080939E01909380
:101600009F01A093A001B093A10182E291E0909389
:101610009B0180939A0185EC90E09093A7018093C1
:10162000A60184EC90E09093A9018093A80180EC3E
:1016300090E09093AB018093AA0181EC90E09093AD
:10164000AD018093AC0182EC90E09093AF01809368
:10165000AE0186EC90E09093B1018093B0011092BE
:10166000B3011092B4011092B5011092B60110921C
:10167000400210923F0210924202109241021092D8
:1016800044021092430284E391E090933E028093DF
:101690003D0280E5809345021092460210924A0274
:1016A000109249028FEF80934B02809351028093F6
:1016B0005202109253021092540210925802109249
:1016C000570210925A021092590210925C02109224
:1016D0005B0210925F0210925E022DE332E03093C3
:1016E0006102209360029AE0909362022EE431E05E
:1016F00030934802209347021092650392E0909342
:101700006302809364028AE090E00E94030E90934B
:101710003802809337028AE090E00E94030E909393
:101720003A028093390285E090E00E94030E909384
:101730003C0280933B0290E080E09C01220F331F2B
:10174000A0913702B0913802A20FB31F1D921C92D4
:10175000E0913902F0913A02E20FF31F11821082F8
:10176000E0913B02F0913C02E80FF91F10820196D4
:101770008530910511F70895CF93DF93CDB7DEB78C
:10178000CB5FD1090FB6F894DEBF0FBECDBF789402
:1017900084B5826084BD84B5816084BD85B5826076
:1017A00085BD85B5816085BD80916E008160809327
:1017B0006E00109281008091810082608093810090
:1017C00080918100816080938100809180008160A0
:1017D000809380008091B10084608093B1008091FB
:1017E000B00081608093B00080917A008460809323
:1017F0007A0080917A00826080937A0080917A00EA
:10180000816080937A0080917A00806880937A006A
:101810001092C10061E087E00E940F0261E088E061
:101820000E940F0287E492E00E941B0781116CC0A6
:1018300087E090E00E949802FF24F394B4E0EB2E3E
:1018400013E0D12E00E010E0609137027091380271
:1018500080903B0290903C02FB0185E040E157E222
:1018600090E0D4012D914D012223A1F030E04217E8
:10187000530709F067C0282F30E0220F331F260FCF
:10188000371FA080B180D9012D913C912A153B05CD
:101890000CF05DC032969F5F953019F7853009F4E2
:1018A00058C090E0880F991FE0913902F0913A02F8
:1018B000E80FF91F808191811982FA829B838C83C2
:1018C000ED82DE828091490290914A02039721F0D5
:1018D00087E492E00E942B034BEFBE016F5F7F4FC6
:1018E00087E492E00E94840387E492E00E948A06E3
:1018F0000115110509F4A8CF0E947701882309F486
:10190000A3CF0E940000A0CF44EE66E087E492E0FF
:101910000E94E90240EC67E087E492E00E94E9025D
:1019200040E068E087E492E00E94E90281E0809371
:1019300066034FE769E087E492E00E94E90288E0ED
:1019400090E078CF241735070CF0A4CFA901892F98
:10195000A1CF80E090E0B0CF809137029091380223
:10196000009711F00E949F0E8091390290913A02E7
:10197000009711F00E949F0E80913B0290913C02D3
:10198000009711F00C949F0E08958F929F92AF9242
:10199000BF92CF92DF92EF92FF92CF93DF93EC0151
:1019A000688179818A819B81611571058105910525
:1019B00021F464E279ED8BE597E02DE133EF41E02E
:1019C00050E00E94720D49015A019B01AC01A7EA47
:1019D000B1E40E94910D6B017C01ACEEB4EFA50166
:1019E00094010E949F0DC60ED71EE81EF91EF7FE39
:1019F00006C081E0C81AD108E10880E8F80AC88268
:101A0000D982EA82FB82C701B6019F77DF91CF912D
:101A1000FF90EF90DF90CF90BF90AF909F908F900E
:101A200008958F929F92AF92BF92CF92DF92EF92E2
:101A3000FF926091040170910501809106019091DF
:101A40000701611571058105910521F464E279EDC5
:101A50008BE597E02DE133EF41E050E00E94720DFD
:101A600049015A019B01AC01A7EAB1E40E94910D22
:101A70006B017C01ACEEB4EFA50194010E949F0DB7
:101A8000C60ED71EE81EF91EF7FE06C081E0C81A72
:101A9000D108E10880E8F80AC0920401D09205015B
:101AA000E0920601F0920701C701B6019F77FF900F
:101AB000EF90DF90CF90BF90AF909F908F90089560
:101AC00060930401709305018093060190930701D0
:101AD0000895FB01DC0102C005900D924150504079
:101AE000D8F70895052E97FB1EF400940E94890DE7
:101AF00057FD07D00E94A40D07FC03D04EF40C94B0
:101B0000890D50954095309521953F4F4F4F5F4F30
:101B1000089590958095709561957F4F8F4F9F4F59
:101B200008950E94C60DA59F900DB49F900DA49F8F
:101B3000800D911D11240895B7FF0C94910D0E9402
:101B4000910D821B930B0895A1E21A2EAA1BBB1BB9
:101B5000FD010DC0AA1FBB1FEE1FFF1FA217B30779
:101B6000E407F50720F0A21BB30BE40BF50B661F8F
:101B7000771F881F991F1A9469F760957095809553
:101B800090959B01AC01BD01CF010895A29FB001CA
:101B9000B39FC001A39F700D811D1124911DB29FA1
:101BA000700D811D1124911D089597FB072E16F4C9
:101BB000009407D077FD09D00E94E90D07FC05D0FD
:101BC0003EF4909581959F4F0895709561957F4F54
:101BD0000895AA1BBB1B51E107C0AA1FBB1FA61774
:101BE000B70710F0A61BB70B881F991F5A95A9F7C6
:101BF00080959095BC01CD010895EE0FFF1F0590D3
:101C0000F491E02D09940F931F93CF93DF938230CB
:101C1000910510F482E090E0E0916A03F0916B038B
:101C200030E020E0B0E0A0E0309799F421153105D4
:101C300009F44AC0281B390B24303105D8F58A81B4
:101C40009B816115710589F1FB0193838283FE01FC
:101C500011C0408151810281138148175907E0F07A
:101C60004817590799F4109761F012960C93129740
:101C700013961C933296CF01DF91CF911F910F9154
:101C8000089500936A0310936B03F4CF2115310577
:101C900051F04217530738F0A901DB019A01BD0149
:101CA000DF01F801C1CFEF01F9CF90936B0380936F
:101CB0006A03CDCFFE01E20FF31F8193919322506F
:101CC000310939832883D7CF209168033091690384
:101CD000232B41F420910A0130910B0130936903C9
:101CE00020936803209108013091090121153105E5
:101CF00041F42DB73EB740910C0150910D01241BCA
:101D0000350BE0916803F0916903E217F307A0F443
:101D10002E1B3F0B2817390778F0AC014E5F5F4F41
:101D20002417350748F04E0F5F1F50936903409307
:101D30006803819391939FCFF0E0E0E09CCFCF9335
:101D4000DF930097E9F0FC01329713821282A09191
:101D50006A03B0916B03ED0130E020E01097A1F42D
:101D600020813181820F931F209168033091690394
:101D70002817390709F061C0F0936903E0936803FD
:101D8000DF91CF910895EA01CE17DF07E8F54A8188
:101D90005B819E0141155105B1F7E901FB83EA839F
:101DA00049915991C40FD51FEC17FD0761F480814B
:101DB00091810296840F951FE9019983888382811E
:101DC00093819B838A83F0E0E0E012968D919C9151
:101DD00013970097B9F52D913C911197CD0102967B
:101DE000820F931F209168033091690328173907E8
:101DF00039F6309751F510926B0310926A03B09345
:101E00006903A0936803BCCFD383C283408151810F
:101E1000840F951FC817D90761F44E5F5F4F888103
:101E20009981480F591F518340838A819B819383F5
:101E300082832115310509F0B0CFF0936B03E09355
:101E40006A039ECFFD01DC01C0CF13821282D7CF7F
:101E500081E090E0F8940C94360FFB01DC0102C0A5
:101E600001900D9241505040D8F7089510E0C8E617
:101E7000D0E004C0FE010E94FD0D2196C936D107B5
:061E8000C9F7F894FFCF42
:101E8600CE02CE020100000000006C0380000D0EA1
:101E9600131516191A1C232526292A2C323400005C
:101EA60000000A018B01AB005701DC00BA00CE002E
:101EB600000000000A0606060206DB07EE05190604
:101EC60015061106D105C005A605000000001B0772
:101ED6001304D8068403CF02C5068A065B0692065B
:101EE6006F083E03550652064F064C064506580631
:101EF60042063F063C063906350631062D065B03CB
:061F0600270623061F065A
:107E0000112484B714BE81FFF0D085E080938100F7
:107E100082E08093C00088E18093C10086E0809377
:107E2000C20080E18093C4008EE0C9D0259A86E02C
:107E300020E33CEF91E0309385002093840096BBD3
:107E4000B09BFECF1D9AA8958150A9F7CC24DD24C4
:107E500088248394B5E0AB2EA1E19A2EF3E0BF2EE7
:107E6000A2D0813461F49FD0082FAFD0023811F036
:107E7000013811F484E001C083E08DD089C08234E0
:107E800011F484E103C0853419F485E0A6D080C0E4
:107E9000853579F488D0E82EFF2485D0082F10E0AE
:107EA000102F00270E291F29000F111F8ED06801E7
:107EB0006FC0863521F484E090D080E0DECF843638
:107EC00009F040C070D06FD0082F6DD080E0C81688
:107ED00080E7D80618F4F601B7BEE895C0E0D1E017
:107EE00062D089930C17E1F7F0E0CF16F0E7DF06D8
:107EF00018F0F601B7BEE89568D007B600FCFDCFD4
:107F0000A601A0E0B1E02C9130E011968C91119780
:107F100090E0982F8827822B932B1296FA010C0160
:107F200087BEE89511244E5F5F4FF1E0A038BF0790
:107F300051F7F601A7BEE89507B600FCFDCF97BE46
:107F4000E89526C08437B1F42ED02DD0F82E2BD052
:107F50003CD0F601EF2C8F010F5F1F4F84911BD097
:107F6000EA94F801C1F70894C11CD11CFA94CF0C13
:107F7000D11C0EC0853739F428D08EE10CD085E9AC
:107F80000AD08FE07ACF813511F488E018D01DD067
:107F900080E101D065CF982F8091C00085FFFCCF94
:107FA0009093C60008958091C00087FFFCCF809118
:107FB000C00084FD01C0A8958091C6000895E0E648
:107FC000F0E098E1908380830895EDDF803219F02E
:107FD00088E0F5DFFFCF84E1DECF1F93182FE3DFCA
:107FE0001150E9F7F2DF1F91089580E0E8DFEE27F6
:047FF000FF270994CA
:027FFE00040479
:0400000300007E007B
:00000001FF
